{
  "_format": "hh-sol-artifact-1",
  "contractName": "AutomatedMarketMaker",
  "sourceName": "contracts/AutomatedMarketMaker.sol",
  "abi": [
    {
      "inputs": [
        {
          "internalType": "int256",
          "name": "token1Balance",
          "type": "int256"
        },
        {
          "internalType": "int256",
          "name": "token1Change",
          "type": "int256"
        },
        {
          "internalType": "int256",
          "name": "k",
          "type": "int256"
        }
      ],
      "name": "updatePoolBalance",
      "outputs": [
        {
          "internalType": "int256",
          "name": "",
          "type": "int256"
        }
      ],
      "stateMutability": "view",
      "type": "function"
    }
  ],
  "bytecode": "0x608060405260c8600055670de0b6b3a764000060015534801561002157600080fd5b50610568806100316000396000f3fe608060405234801561001057600080fd5b506004361061002b5760003560e01c8063e19a5bad14610030575b600080fd5b61004a60048036038101906100459190610193565b610060565b60405161005791906101f5565b60405180910390f35b6000808412156100a5576040517f08c379a000000000000000000000000000000000000000000000000000000000815260040161009c90610293565b60405180910390fd5b600083036100e8576040517f08c379a00000000000000000000000000000000000000000000000000000000081526004016100df9061034b565b60405180910390fd5b600060015484866100f9919061039a565b61010391906103de565b9050600081846101139190610485565b905060008054600154836101279190610485565b61013191906103de565b9050600154818361014291906104ef565b61014c9190610485565b93505050509392505050565b600080fd5b6000819050919050565b6101708161015d565b811461017b57600080fd5b50565b60008135905061018d81610167565b92915050565b6000806000606084860312156101ac576101ab610158565b5b60006101ba8682870161017e565b93505060206101cb8682870161017e565b92505060406101dc8682870161017e565b9150509250925092565b6101ef8161015d565b82525050565b600060208201905061020a60008301846101e6565b92915050565b600082825260208201905092915050565b7f5468697320746f6b656e27732062616c616e6365206d7573742062652067726560008201527f61746572207468616e20302e0000000000000000000000000000000000000000602082015250565b600061027d602c83610210565b915061028882610221565b604082019050919050565b600060208201905081810360008301526102ac81610270565b9050919050565b7f54686520746f6b656e206d757374206368616e6765206279206174206c65617360008201527f7420736f6d6520616d6f756e7420286e65676174697665206f7220706f73697460208201527f697665292e000000000000000000000000000000000000000000000000000000604082015250565b6000610335604583610210565b9150610340826102b3565b606082019050919050565b6000602082019050818103600083015261036481610328565b9050919050565b7f4e487b7100000000000000000000000000000000000000000000000000000000600052601160045260246000fd5b60006103a58261015d565b91506103b08361015d565b9250828201905082811215600083121683821260008412151617156103d8576103d761036b565b5b92915050565b60006103e98261015d565b91506103f48361015d565b92508282026104028161015d565b91507f8000000000000000000000000000000000000000000000000000000000000000841460008412161561043a5761043961036b565b5b828205841483151761044f5761044e61036b565b5b5092915050565b7f4e487b7100000000000000000000000000000000000000000000000000000000600052601260045260246000fd5b60006104908261015d565b915061049b8361015d565b9250826104ab576104aa610456565b5b600160000383147f8000000000000000000000000000000000000000000000000000000000000000831416156104e4576104e361036b565b5b828205905092915050565b60006104fa8261015d565b91506105058361015d565b925082820390508181126000841216828213600085121516171561052c5761052b61036b565b5b9291505056fea26469706673582212204887fd4551dc270e71d1738ccc32a6cb9506d37f87cd9ea29f0ea6f519bff94464736f6c63430008140033",
  "linkReferences": {},
  "deployedLinkReferences": {}
}