{"contracts/AutomatedMarketMaker.sol":{"AutomatedMarketMaker":{"abi":[{"inputs":[{"internalType":"int256","name":"token1Balance","type":"int256"},{"internalType":"int256","name":"token1Change","type":"int256"},{"internalType":"int256","name":"k","type":"int256"}],"name":"updatePoolBalance","outputs":[{"internalType":"int256","name":"","type":"int256"}],"stateMutability":"view","type":"function"}],"evm":{"bytecode":{"linkReferences":{},"object":"608060405260c8600055670de0b6b3a764000060015534801561002157600080fd5b50610568806100316000396000f3fe608060405234801561001057600080fd5b506004361061002b5760003560e01c8063e19a5bad14610030575b600080fd5b61004a60048036038101906100459190610193565b610060565b60405161005791906101f5565b60405180910390f35b6000808412156100a5576040517f08c379a000000000000000000000000000000000000000000000000000000000815260040161009c90610293565b60405180910390fd5b600083036100e8576040517f08c379a00000000000000000000000000000000000000000000000000000000081526004016100df9061034b565b60405180910390fd5b600060015484866100f9919061039a565b61010391906103de565b9050600081846101139190610485565b905060008054600154836101279190610485565b61013191906103de565b9050600154818361014291906104ef565b61014c9190610485565b93505050509392505050565b600080fd5b6000819050919050565b6101708161015d565b811461017b57600080fd5b50565b60008135905061018d81610167565b92915050565b6000806000606084860312156101ac576101ab610158565b5b60006101ba8682870161017e565b93505060206101cb8682870161017e565b92505060406101dc8682870161017e565b9150509250925092565b6101ef8161015d565b82525050565b600060208201905061020a60008301846101e6565b92915050565b600082825260208201905092915050565b7f5468697320746f6b656e27732062616c616e6365206d7573742062652067726560008201527f61746572207468616e20302e0000000000000000000000000000000000000000602082015250565b600061027d602c83610210565b915061028882610221565b604082019050919050565b600060208201905081810360008301526102ac81610270565b9050919050565b7f54686520746f6b656e206d757374206368616e6765206279206174206c65617360008201527f7420736f6d6520616d6f756e7420286e65676174697665206f7220706f73697460208201527f697665292e000000000000000000000000000000000000000000000000000000604082015250565b6000610335604583610210565b9150610340826102b3565b606082019050919050565b6000602082019050818103600083015261036481610328565b9050919050565b7f4e487b7100000000000000000000000000000000000000000000000000000000600052601160045260246000fd5b60006103a58261015d565b91506103b08361015d565b9250828201905082811215600083121683821260008412151617156103d8576103d761036b565b5b92915050565b60006103e98261015d565b91506103f48361015d565b92508282026104028161015d565b91507f8000000000000000000000000000000000000000000000000000000000000000841460008412161561043a5761043961036b565b5b828205841483151761044f5761044e61036b565b5b5092915050565b7f4e487b7100000000000000000000000000000000000000000000000000000000600052601260045260246000fd5b60006104908261015d565b915061049b8361015d565b9250826104ab576104aa610456565b5b600160000383147f8000000000000000000000000000000000000000000000000000000000000000831416156104e4576104e361036b565b5b828205905092915050565b60006104fa8261015d565b91506105058361015d565b925082820390508181126000841216828213600085121516171561052c5761052b61036b565b5b9291505056fea26469706673582212204887fd4551dc270e71d1738ccc32a6cb9506d37f87cd9ea29f0ea6f519bff94464736f6c63430008140033","opcodes":"PUSH1 0x80 PUSH1 0x40 MSTORE PUSH1 0xC8 PUSH1 0x0 SSTORE PUSH8 0xDE0B6B3A7640000 PUSH1 0x1 SSTORE CALLVALUE DUP1 ISZERO PUSH2 0x21 JUMPI PUSH1 0x0 DUP1 REVERT JUMPDEST POP PUSH2 0x568 DUP1 PUSH2 0x31 PUSH1 0x0 CODECOPY PUSH1 0x0 RETURN INVALID PUSH1 0x80 PUSH1 0x40 MSTORE CALLVALUE DUP1 ISZERO PUSH2 0x10 JUMPI PUSH1 0x0 DUP1 REVERT JUMPDEST POP PUSH1 0x4 CALLDATASIZE LT PUSH2 0x2B JUMPI PUSH1 0x0 CALLDATALOAD PUSH1 0xE0 SHR DUP1 PUSH4 0xE19A5BAD EQ PUSH2 0x30 JUMPI JUMPDEST PUSH1 0x0 DUP1 REVERT JUMPDEST PUSH2 0x4A PUSH1 0x4 DUP1 CALLDATASIZE SUB DUP2 ADD SWAP1 PUSH2 0x45 SWAP2 SWAP1 PUSH2 0x193 JUMP JUMPDEST PUSH2 0x60 JUMP JUMPDEST PUSH1 0x40 MLOAD PUSH2 0x57 SWAP2 SWAP1 PUSH2 0x1F5 JUMP JUMPDEST PUSH1 0x40 MLOAD DUP1 SWAP2 SUB SWAP1 RETURN JUMPDEST PUSH1 0x0 DUP1 DUP5 SLT ISZERO PUSH2 0xA5 JUMPI PUSH1 0x40 MLOAD PUSH32 0x8C379A000000000000000000000000000000000000000000000000000000000 DUP2 MSTORE PUSH1 0x4 ADD PUSH2 0x9C SWAP1 PUSH2 0x293 JUMP JUMPDEST PUSH1 0x40 MLOAD DUP1 SWAP2 SUB SWAP1 REVERT JUMPDEST PUSH1 0x0 DUP4 SUB PUSH2 0xE8 JUMPI PUSH1 0x40 MLOAD PUSH32 0x8C379A000000000000000000000000000000000000000000000000000000000 DUP2 MSTORE PUSH1 0x4 ADD PUSH2 0xDF SWAP1 PUSH2 0x34B JUMP JUMPDEST PUSH1 0x40 MLOAD DUP1 SWAP2 SUB SWAP1 REVERT JUMPDEST PUSH1 0x0 PUSH1 0x1 SLOAD DUP5 DUP7 PUSH2 0xF9 SWAP2 SWAP1 PUSH2 0x39A JUMP JUMPDEST PUSH2 0x103 SWAP2 SWAP1 PUSH2 0x3DE JUMP JUMPDEST SWAP1 POP PUSH1 0x0 DUP2 DUP5 PUSH2 0x113 SWAP2 SWAP1 PUSH2 0x485 JUMP JUMPDEST SWAP1 POP PUSH1 0x0 DUP1 SLOAD PUSH1 0x1 SLOAD DUP4 PUSH2 0x127 SWAP2 SWAP1 PUSH2 0x485 JUMP JUMPDEST PUSH2 0x131 SWAP2 SWAP1 PUSH2 0x3DE JUMP JUMPDEST SWAP1 POP PUSH1 0x1 SLOAD DUP2 DUP4 PUSH2 0x142 SWAP2 SWAP1 PUSH2 0x4EF JUMP JUMPDEST PUSH2 0x14C SWAP2 SWAP1 PUSH2 0x485 JUMP JUMPDEST SWAP4 POP POP POP POP SWAP4 SWAP3 POP POP POP JUMP JUMPDEST PUSH1 0x0 DUP1 REVERT JUMPDEST PUSH1 0x0 DUP2 SWAP1 POP SWAP2 SWAP1 POP JUMP JUMPDEST PUSH2 0x170 DUP2 PUSH2 0x15D JUMP JUMPDEST DUP2 EQ PUSH2 0x17B JUMPI PUSH1 0x0 DUP1 REVERT JUMPDEST POP JUMP JUMPDEST PUSH1 0x0 DUP2 CALLDATALOAD SWAP1 POP PUSH2 0x18D DUP2 PUSH2 0x167 JUMP JUMPDEST SWAP3 SWAP2 POP POP JUMP JUMPDEST PUSH1 0x0 DUP1 PUSH1 0x0 PUSH1 0x60 DUP5 DUP7 SUB SLT ISZERO PUSH2 0x1AC JUMPI PUSH2 0x1AB PUSH2 0x158 JUMP JUMPDEST JUMPDEST PUSH1 0x0 PUSH2 0x1BA DUP7 DUP3 DUP8 ADD PUSH2 0x17E JUMP JUMPDEST SWAP4 POP POP PUSH1 0x20 PUSH2 0x1CB DUP7 DUP3 DUP8 ADD PUSH2 0x17E JUMP JUMPDEST SWAP3 POP POP PUSH1 0x40 PUSH2 0x1DC DUP7 DUP3 DUP8 ADD PUSH2 0x17E JUMP JUMPDEST SWAP2 POP POP SWAP3 POP SWAP3 POP SWAP3 JUMP JUMPDEST PUSH2 0x1EF DUP2 PUSH2 0x15D JUMP JUMPDEST DUP3 MSTORE POP POP JUMP JUMPDEST PUSH1 0x0 PUSH1 0x20 DUP3 ADD SWAP1 POP PUSH2 0x20A PUSH1 0x0 DUP4 ADD DUP5 PUSH2 0x1E6 JUMP JUMPDEST SWAP3 SWAP2 POP POP JUMP JUMPDEST PUSH1 0x0 DUP3 DUP3 MSTORE PUSH1 0x20 DUP3 ADD SWAP1 POP SWAP3 SWAP2 POP POP JUMP JUMPDEST PUSH32 0x5468697320746F6B656E27732062616C616E6365206D75737420626520677265 PUSH1 0x0 DUP3 ADD MSTORE PUSH32 0x61746572207468616E20302E0000000000000000000000000000000000000000 PUSH1 0x20 DUP3 ADD MSTORE POP JUMP JUMPDEST PUSH1 0x0 PUSH2 0x27D PUSH1 0x2C DUP4 PUSH2 0x210 JUMP JUMPDEST SWAP2 POP PUSH2 0x288 DUP3 PUSH2 0x221 JUMP JUMPDEST PUSH1 0x40 DUP3 ADD SWAP1 POP SWAP2 SWAP1 POP JUMP JUMPDEST PUSH1 0x0 PUSH1 0x20 DUP3 ADD SWAP1 POP DUP2 DUP2 SUB PUSH1 0x0 DUP4 ADD MSTORE PUSH2 0x2AC DUP2 PUSH2 0x270 JUMP JUMPDEST SWAP1 POP SWAP2 SWAP1 POP JUMP JUMPDEST PUSH32 0x54686520746F6B656E206D757374206368616E6765206279206174206C656173 PUSH1 0x0 DUP3 ADD MSTORE PUSH32 0x7420736F6D6520616D6F756E7420286E65676174697665206F7220706F736974 PUSH1 0x20 DUP3 ADD MSTORE PUSH32 0x697665292E000000000000000000000000000000000000000000000000000000 PUSH1 0x40 DUP3 ADD MSTORE POP JUMP JUMPDEST PUSH1 0x0 PUSH2 0x335 PUSH1 0x45 DUP4 PUSH2 0x210 JUMP JUMPDEST SWAP2 POP PUSH2 0x340 DUP3 PUSH2 0x2B3 JUMP JUMPDEST PUSH1 0x60 DUP3 ADD SWAP1 POP SWAP2 SWAP1 POP JUMP JUMPDEST PUSH1 0x0 PUSH1 0x20 DUP3 ADD SWAP1 POP DUP2 DUP2 SUB PUSH1 0x0 DUP4 ADD MSTORE PUSH2 0x364 DUP2 PUSH2 0x328 JUMP JUMPDEST SWAP1 POP SWAP2 SWAP1 POP JUMP JUMPDEST PUSH32 0x4E487B7100000000000000000000000000000000000000000000000000000000 PUSH1 0x0 MSTORE PUSH1 0x11 PUSH1 0x4 MSTORE PUSH1 0x24 PUSH1 0x0 REVERT JUMPDEST PUSH1 0x0 PUSH2 0x3A5 DUP3 PUSH2 0x15D JUMP JUMPDEST SWAP2 POP PUSH2 0x3B0 DUP4 PUSH2 0x15D JUMP JUMPDEST SWAP3 POP DUP3 DUP3 ADD SWAP1 POP DUP3 DUP2 SLT ISZERO PUSH1 0x0 DUP4 SLT AND DUP4 DUP3 SLT PUSH1 0x0 DUP5 SLT ISZERO AND OR ISZERO PUSH2 0x3D8 JUMPI PUSH2 0x3D7 PUSH2 0x36B JUMP JUMPDEST JUMPDEST SWAP3 SWAP2 POP POP JUMP JUMPDEST PUSH1 0x0 PUSH2 0x3E9 DUP3 PUSH2 0x15D JUMP JUMPDEST SWAP2 POP PUSH2 0x3F4 DUP4 PUSH2 0x15D JUMP JUMPDEST SWAP3 POP DUP3 DUP3 MUL PUSH2 0x402 DUP2 PUSH2 0x15D JUMP JUMPDEST SWAP2 POP PUSH32 0x8000000000000000000000000000000000000000000000000000000000000000 DUP5 EQ PUSH1 0x0 DUP5 SLT AND ISZERO PUSH2 0x43A JUMPI PUSH2 0x439 PUSH2 0x36B JUMP JUMPDEST JUMPDEST DUP3 DUP3 SDIV DUP5 EQ DUP4 ISZERO OR PUSH2 0x44F JUMPI PUSH2 0x44E PUSH2 0x36B JUMP JUMPDEST JUMPDEST POP SWAP3 SWAP2 POP POP JUMP JUMPDEST PUSH32 0x4E487B7100000000000000000000000000000000000000000000000000000000 PUSH1 0x0 MSTORE PUSH1 0x12 PUSH1 0x4 MSTORE PUSH1 0x24 PUSH1 0x0 REVERT JUMPDEST PUSH1 0x0 PUSH2 0x490 DUP3 PUSH2 0x15D JUMP JUMPDEST SWAP2 POP PUSH2 0x49B DUP4 PUSH2 0x15D JUMP JUMPDEST SWAP3 POP DUP3 PUSH2 0x4AB JUMPI PUSH2 0x4AA PUSH2 0x456 JUMP JUMPDEST JUMPDEST PUSH1 0x1 PUSH1 0x0 SUB DUP4 EQ PUSH32 0x8000000000000000000000000000000000000000000000000000000000000000 DUP4 EQ AND ISZERO PUSH2 0x4E4 JUMPI PUSH2 0x4E3 PUSH2 0x36B JUMP JUMPDEST JUMPDEST DUP3 DUP3 SDIV SWAP1 POP SWAP3 SWAP2 POP POP JUMP JUMPDEST PUSH1 0x0 PUSH2 0x4FA DUP3 PUSH2 0x15D JUMP JUMPDEST SWAP2 POP PUSH2 0x505 DUP4 PUSH2 0x15D JUMP JUMPDEST SWAP3 POP DUP3 DUP3 SUB SWAP1 POP DUP2 DUP2 SLT PUSH1 0x0 DUP5 SLT AND DUP3 DUP3 SGT PUSH1 0x0 DUP6 SLT ISZERO AND OR ISZERO PUSH2 0x52C JUMPI PUSH2 0x52B PUSH2 0x36B JUMP JUMPDEST JUMPDEST SWAP3 SWAP2 POP POP JUMP INVALID LOG2 PUSH5 0x6970667358 0x22 SLT KECCAK256 BASEFEE DUP8 REVERT GASLIMIT MLOAD 0xDC 0x27 0xE PUSH18 0xD1738CCC32A6CB9506D37F87CD9EA29F0EA6 CREATE2 NOT 0xBF 0xF9 PREVRANDAO PUSH5 0x736F6C6343 STOP ADDMOD EQ STOP CALLER "},"methodIdentifiers":{"updatePoolBalance(int256,int256,int256)":"e19a5bad"}}}}}