{"contracts/AutomatedMarketMaker.sol":{"AutomatedMarketMaker":{"abi":[{"inputs":[{"internalType":"int256","name":"token1Balance","type":"int256"},{"internalType":"int256","name":"token1Change","type":"int256"},{"internalType":"int256","name":"k","type":"int256"}],"name":"updatePoolBalance","outputs":[{"internalType":"int256","name":"","type":"int256"}],"stateMutability":"view","type":"function"}],"evm":{"bytecode":{"linkReferences":{},"object":"608060405260c8600055670de0b6b3a764000060015534801561002157600080fd5b50610542806100316000396000f3fe608060405234801561001057600080fd5b506004361061002b5760003560e01c8063e19a5bad14610030575b600080fd5b61004a60048036038101906100459190610193565b610060565b60405161005791906101f5565b60405180910390f35b6000808412156100a5576040517f08c379a000000000000000000000000000000000000000000000000000000000815260040161009c90610293565b60405180910390fd5b600083036100e8576040517f08c379a00000000000000000000000000000000000000000000000000000000081526004016100df90610325565b60405180910390fd5b600060015484866100f99190610374565b61010391906103b8565b905060008184610113919061045f565b90506000805460015483610127919061045f565b61013191906103b8565b9050600154818361014291906104c9565b61014c919061045f565b93505050509392505050565b600080fd5b6000819050919050565b6101708161015d565b811461017b57600080fd5b50565b60008135905061018d81610167565b92915050565b6000806000606084860312156101ac576101ab610158565b5b60006101ba8682870161017e565b93505060206101cb8682870161017e565b92505060406101dc8682870161017e565b9150509250925092565b6101ef8161015d565b82525050565b600060208201905061020a60008301846101e6565b92915050565b600082825260208201905092915050565b7f5468697320746f6b656e27732062616c616e6365206d7573742062652067726560008201527f61746572207468616e20302e0000000000000000000000000000000000000000602082015250565b600061027d602c83610210565b915061028882610221565b604082019050919050565b600060208201905081810360008301526102ac81610270565b9050919050565b7f54686520746f6b656e206d757374206368616e6765206279206174206c65617360008201527f7420736f6d6520616d6f756e742e000000000000000000000000000000000000602082015250565b600061030f602e83610210565b915061031a826102b3565b604082019050919050565b6000602082019050818103600083015261033e81610302565b9050919050565b7f4e487b7100000000000000000000000000000000000000000000000000000000600052601160045260246000fd5b600061037f8261015d565b915061038a8361015d565b9250828201905082811215600083121683821260008412151617156103b2576103b1610345565b5b92915050565b60006103c38261015d565b91506103ce8361015d565b92508282026103dc8161015d565b91507f8000000000000000000000000000000000000000000000000000000000000000841460008412161561041457610413610345565b5b828205841483151761042957610428610345565b5b5092915050565b7f4e487b7100000000000000000000000000000000000000000000000000000000600052601260045260246000fd5b600061046a8261015d565b91506104758361015d565b92508261048557610484610430565b5b600160000383147f8000000000000000000000000000000000000000000000000000000000000000831416156104be576104bd610345565b5b828205905092915050565b60006104d48261015d565b91506104df8361015d565b925082820390508181126000841216828213600085121516171561050657610505610345565b5b9291505056fea2646970667358221220943d6398c1a8486e78f6f87cbc19931212bcac81bd20433374b2ea2595342f5064736f6c63430008140033","opcodes":"PUSH1 0x80 PUSH1 0x40 MSTORE PUSH1 0xC8 PUSH1 0x0 SSTORE PUSH8 0xDE0B6B3A7640000 PUSH1 0x1 SSTORE CALLVALUE DUP1 ISZERO PUSH2 0x21 JUMPI PUSH1 0x0 DUP1 REVERT JUMPDEST POP PUSH2 0x542 DUP1 PUSH2 0x31 PUSH1 0x0 CODECOPY PUSH1 0x0 RETURN INVALID PUSH1 0x80 PUSH1 0x40 MSTORE CALLVALUE DUP1 ISZERO PUSH2 0x10 JUMPI PUSH1 0x0 DUP1 REVERT JUMPDEST POP PUSH1 0x4 CALLDATASIZE LT PUSH2 0x2B JUMPI PUSH1 0x0 CALLDATALOAD PUSH1 0xE0 SHR DUP1 PUSH4 0xE19A5BAD EQ PUSH2 0x30 JUMPI JUMPDEST PUSH1 0x0 DUP1 REVERT JUMPDEST PUSH2 0x4A PUSH1 0x4 DUP1 CALLDATASIZE SUB DUP2 ADD SWAP1 PUSH2 0x45 SWAP2 SWAP1 PUSH2 0x193 JUMP JUMPDEST PUSH2 0x60 JUMP JUMPDEST PUSH1 0x40 MLOAD PUSH2 0x57 SWAP2 SWAP1 PUSH2 0x1F5 JUMP JUMPDEST PUSH1 0x40 MLOAD DUP1 SWAP2 SUB SWAP1 RETURN JUMPDEST PUSH1 0x0 DUP1 DUP5 SLT ISZERO PUSH2 0xA5 JUMPI PUSH1 0x40 MLOAD PUSH32 0x8C379A000000000000000000000000000000000000000000000000000000000 DUP2 MSTORE PUSH1 0x4 ADD PUSH2 0x9C SWAP1 PUSH2 0x293 JUMP JUMPDEST PUSH1 0x40 MLOAD DUP1 SWAP2 SUB SWAP1 REVERT JUMPDEST PUSH1 0x0 DUP4 SUB PUSH2 0xE8 JUMPI PUSH1 0x40 MLOAD PUSH32 0x8C379A000000000000000000000000000000000000000000000000000000000 DUP2 MSTORE PUSH1 0x4 ADD PUSH2 0xDF SWAP1 PUSH2 0x325 JUMP JUMPDEST PUSH1 0x40 MLOAD DUP1 SWAP2 SUB SWAP1 REVERT JUMPDEST PUSH1 0x0 PUSH1 0x1 SLOAD DUP5 DUP7 PUSH2 0xF9 SWAP2 SWAP1 PUSH2 0x374 JUMP JUMPDEST PUSH2 0x103 SWAP2 SWAP1 PUSH2 0x3B8 JUMP JUMPDEST SWAP1 POP PUSH1 0x0 DUP2 DUP5 PUSH2 0x113 SWAP2 SWAP1 PUSH2 0x45F JUMP JUMPDEST SWAP1 POP PUSH1 0x0 DUP1 SLOAD PUSH1 0x1 SLOAD DUP4 PUSH2 0x127 SWAP2 SWAP1 PUSH2 0x45F JUMP JUMPDEST PUSH2 0x131 SWAP2 SWAP1 PUSH2 0x3B8 JUMP JUMPDEST SWAP1 POP PUSH1 0x1 SLOAD DUP2 DUP4 PUSH2 0x142 SWAP2 SWAP1 PUSH2 0x4C9 JUMP JUMPDEST PUSH2 0x14C SWAP2 SWAP1 PUSH2 0x45F JUMP JUMPDEST SWAP4 POP POP POP POP SWAP4 SWAP3 POP POP POP JUMP JUMPDEST PUSH1 0x0 DUP1 REVERT JUMPDEST PUSH1 0x0 DUP2 SWAP1 POP SWAP2 SWAP1 POP JUMP JUMPDEST PUSH2 0x170 DUP2 PUSH2 0x15D JUMP JUMPDEST DUP2 EQ PUSH2 0x17B JUMPI PUSH1 0x0 DUP1 REVERT JUMPDEST POP JUMP JUMPDEST PUSH1 0x0 DUP2 CALLDATALOAD SWAP1 POP PUSH2 0x18D DUP2 PUSH2 0x167 JUMP JUMPDEST SWAP3 SWAP2 POP POP JUMP JUMPDEST PUSH1 0x0 DUP1 PUSH1 0x0 PUSH1 0x60 DUP5 DUP7 SUB SLT ISZERO PUSH2 0x1AC JUMPI PUSH2 0x1AB PUSH2 0x158 JUMP JUMPDEST JUMPDEST PUSH1 0x0 PUSH2 0x1BA DUP7 DUP3 DUP8 ADD PUSH2 0x17E JUMP JUMPDEST SWAP4 POP POP PUSH1 0x20 PUSH2 0x1CB DUP7 DUP3 DUP8 ADD PUSH2 0x17E JUMP JUMPDEST SWAP3 POP POP PUSH1 0x40 PUSH2 0x1DC DUP7 DUP3 DUP8 ADD PUSH2 0x17E JUMP JUMPDEST SWAP2 POP POP SWAP3 POP SWAP3 POP SWAP3 JUMP JUMPDEST PUSH2 0x1EF DUP2 PUSH2 0x15D JUMP JUMPDEST DUP3 MSTORE POP POP JUMP JUMPDEST PUSH1 0x0 PUSH1 0x20 DUP3 ADD SWAP1 POP PUSH2 0x20A PUSH1 0x0 DUP4 ADD DUP5 PUSH2 0x1E6 JUMP JUMPDEST SWAP3 SWAP2 POP POP JUMP JUMPDEST PUSH1 0x0 DUP3 DUP3 MSTORE PUSH1 0x20 DUP3 ADD SWAP1 POP SWAP3 SWAP2 POP POP JUMP JUMPDEST PUSH32 0x5468697320746F6B656E27732062616C616E6365206D75737420626520677265 PUSH1 0x0 DUP3 ADD MSTORE PUSH32 0x61746572207468616E20302E0000000000000000000000000000000000000000 PUSH1 0x20 DUP3 ADD MSTORE POP JUMP JUMPDEST PUSH1 0x0 PUSH2 0x27D PUSH1 0x2C DUP4 PUSH2 0x210 JUMP JUMPDEST SWAP2 POP PUSH2 0x288 DUP3 PUSH2 0x221 JUMP JUMPDEST PUSH1 0x40 DUP3 ADD SWAP1 POP SWAP2 SWAP1 POP JUMP JUMPDEST PUSH1 0x0 PUSH1 0x20 DUP3 ADD SWAP1 POP DUP2 DUP2 SUB PUSH1 0x0 DUP4 ADD MSTORE PUSH2 0x2AC DUP2 PUSH2 0x270 JUMP JUMPDEST SWAP1 POP SWAP2 SWAP1 POP JUMP JUMPDEST PUSH32 0x54686520746F6B656E206D757374206368616E6765206279206174206C656173 PUSH1 0x0 DUP3 ADD MSTORE PUSH32 0x7420736F6D6520616D6F756E742E000000000000000000000000000000000000 PUSH1 0x20 DUP3 ADD MSTORE POP JUMP JUMPDEST PUSH1 0x0 PUSH2 0x30F PUSH1 0x2E DUP4 PUSH2 0x210 JUMP JUMPDEST SWAP2 POP PUSH2 0x31A DUP3 PUSH2 0x2B3 JUMP JUMPDEST PUSH1 0x40 DUP3 ADD SWAP1 POP SWAP2 SWAP1 POP JUMP JUMPDEST PUSH1 0x0 PUSH1 0x20 DUP3 ADD SWAP1 POP DUP2 DUP2 SUB PUSH1 0x0 DUP4 ADD MSTORE PUSH2 0x33E DUP2 PUSH2 0x302 JUMP JUMPDEST SWAP1 POP SWAP2 SWAP1 POP JUMP JUMPDEST PUSH32 0x4E487B7100000000000000000000000000000000000000000000000000000000 PUSH1 0x0 MSTORE PUSH1 0x11 PUSH1 0x4 MSTORE PUSH1 0x24 PUSH1 0x0 REVERT JUMPDEST PUSH1 0x0 PUSH2 0x37F DUP3 PUSH2 0x15D JUMP JUMPDEST SWAP2 POP PUSH2 0x38A DUP4 PUSH2 0x15D JUMP JUMPDEST SWAP3 POP DUP3 DUP3 ADD SWAP1 POP DUP3 DUP2 SLT ISZERO PUSH1 0x0 DUP4 SLT AND DUP4 DUP3 SLT PUSH1 0x0 DUP5 SLT ISZERO AND OR ISZERO PUSH2 0x3B2 JUMPI PUSH2 0x3B1 PUSH2 0x345 JUMP JUMPDEST JUMPDEST SWAP3 SWAP2 POP POP JUMP JUMPDEST PUSH1 0x0 PUSH2 0x3C3 DUP3 PUSH2 0x15D JUMP JUMPDEST SWAP2 POP PUSH2 0x3CE DUP4 PUSH2 0x15D JUMP JUMPDEST SWAP3 POP DUP3 DUP3 MUL PUSH2 0x3DC DUP2 PUSH2 0x15D JUMP JUMPDEST SWAP2 POP PUSH32 0x8000000000000000000000000000000000000000000000000000000000000000 DUP5 EQ PUSH1 0x0 DUP5 SLT AND ISZERO PUSH2 0x414 JUMPI PUSH2 0x413 PUSH2 0x345 JUMP JUMPDEST JUMPDEST DUP3 DUP3 SDIV DUP5 EQ DUP4 ISZERO OR PUSH2 0x429 JUMPI PUSH2 0x428 PUSH2 0x345 JUMP JUMPDEST JUMPDEST POP SWAP3 SWAP2 POP POP JUMP JUMPDEST PUSH32 0x4E487B7100000000000000000000000000000000000000000000000000000000 PUSH1 0x0 MSTORE PUSH1 0x12 PUSH1 0x4 MSTORE PUSH1 0x24 PUSH1 0x0 REVERT JUMPDEST PUSH1 0x0 PUSH2 0x46A DUP3 PUSH2 0x15D JUMP JUMPDEST SWAP2 POP PUSH2 0x475 DUP4 PUSH2 0x15D JUMP JUMPDEST SWAP3 POP DUP3 PUSH2 0x485 JUMPI PUSH2 0x484 PUSH2 0x430 JUMP JUMPDEST JUMPDEST PUSH1 0x1 PUSH1 0x0 SUB DUP4 EQ PUSH32 0x8000000000000000000000000000000000000000000000000000000000000000 DUP4 EQ AND ISZERO PUSH2 0x4BE JUMPI PUSH2 0x4BD PUSH2 0x345 JUMP JUMPDEST JUMPDEST DUP3 DUP3 SDIV SWAP1 POP SWAP3 SWAP2 POP POP JUMP JUMPDEST PUSH1 0x0 PUSH2 0x4D4 DUP3 PUSH2 0x15D JUMP JUMPDEST SWAP2 POP PUSH2 0x4DF DUP4 PUSH2 0x15D JUMP JUMPDEST SWAP3 POP DUP3 DUP3 SUB SWAP1 POP DUP2 DUP2 SLT PUSH1 0x0 DUP5 SLT AND DUP3 DUP3 SGT PUSH1 0x0 DUP6 SLT ISZERO AND OR ISZERO PUSH2 0x506 JUMPI PUSH2 0x505 PUSH2 0x345 JUMP JUMPDEST JUMPDEST SWAP3 SWAP2 POP POP JUMP INVALID LOG2 PUSH5 0x6970667358 0x22 SLT KECCAK256 SWAP5 RETURNDATASIZE PUSH4 0x98C1A848 PUSH15 0x78F6F87CBC19931212BCAC81BD2043 CALLER PUSH21 0xB2EA2595342F5064736F6C63430008140033000000 "},"methodIdentifiers":{"updatePoolBalance(int256,int256,int256)":"e19a5bad"}}}}}