{
  "_format": "hh-sol-artifact-1",
  "contractName": "Exchange",
  "sourceName": "contracts/Exchange.sol",
  "abi": [
    {
      "inputs": [
        {
          "internalType": "uint256",
          "name": "amountA",
          "type": "uint256"
        },
        {
          "internalType": "uint256",
          "name": "amountB",
          "type": "uint256"
        }
      ],
      "name": "addLiquidity",
      "outputs": [],
      "stateMutability": "nonpayable",
      "type": "function"
    },
    {
      "inputs": [],
      "name": "amm",
      "outputs": [
        {
          "internalType": "contract AutomatedMarketMaker",
          "name": "",
          "type": "address"
        }
      ],
      "stateMutability": "view",
      "type": "function"
    },
    {
      "inputs": [],
      "name": "lpToken",
      "outputs": [
        {
          "internalType": "contract LiquidToken",
          "name": "",
          "type": "address"
        }
      ],
      "stateMutability": "view",
      "type": "function"
    },
    {
      "inputs": [
        {
          "internalType": "uint256",
          "name": "lpAmount",
          "type": "uint256"
        }
      ],
      "name": "removeLiquidity",
      "outputs": [],
      "stateMutability": "nonpayable",
      "type": "function"
    },
    {
      "inputs": [],
      "name": "reserveA",
      "outputs": [
        {
          "internalType": "uint256",
          "name": "",
          "type": "uint256"
        }
      ],
      "stateMutability": "view",
      "type": "function"
    },
    {
      "inputs": [],
      "name": "reserveB",
      "outputs": [
        {
          "internalType": "uint256",
          "name": "",
          "type": "uint256"
        }
      ],
      "stateMutability": "view",
      "type": "function"
    },
    {
      "inputs": [
        {
          "internalType": "address",
          "name": "_tokenA",
          "type": "address"
        },
        {
          "internalType": "address",
          "name": "_tokenB",
          "type": "address"
        },
        {
          "internalType": "address",
          "name": "_amm",
          "type": "address"
        }
      ],
      "name": "setUp",
      "outputs": [],
      "stateMutability": "nonpayable",
      "type": "function"
    },
    {
      "inputs": [
        {
          "internalType": "uint256",
          "name": "amountIn",
          "type": "uint256"
        }
      ],
      "name": "swapAforB",
      "outputs": [],
      "stateMutability": "nonpayable",
      "type": "function"
    },
    {
      "inputs": [
        {
          "internalType": "uint256",
          "name": "amountIn",
          "type": "uint256"
        }
      ],
      "name": "swapBforA",
      "outputs": [],
      "stateMutability": "nonpayable",
      "type": "function"
    },
    {
      "inputs": [],
      "name": "tokenA",
      "outputs": [
        {
          "internalType": "contract IERC20",
          "name": "",
          "type": "address"
        }
      ],
      "stateMutability": "view",
      "type": "function"
    },
    {
      "inputs": [],
      "name": "tokenB",
      "outputs": [
        {
          "internalType": "contract IERC20",
          "name": "",
          "type": "address"
        }
      ],
      "stateMutability": "view",
      "type": "function"
    }
  ],
  "bytecode": "0x608060405234801561001057600080fd5b50612e91806100206000396000f3fe60806040523480156200001157600080fd5b5060043610620000b85760003560e01c80636812b16c116200007b5780636812b16c14620001675780638014a7aa14620001875780639c8f9f2314620001a75780639cd441da14620001c7578063dc5fa6c514620001e7578063e4f1f70a146200020957620000b8565b80630fc63d1014620000bd57806319e36f3b14620000df5780632a94394514620001015780635f64b55b14620001235780635fcbd2851462000145575b600080fd5b620000c762000229565b604051620000d6919062000f4b565b60405180910390f35b620000e96200024d565b604051620000f8919062000f83565b60405180910390f35b6200010b62000253565b6040516200011a919062000fc5565b60405180910390f35b6200012d62000279565b6040516200013c919062000f4b565b60405180910390f35b6200014f6200029f565b6040516200015e919062001007565b60405180910390f35b6200018560048036038101906200017f91906200106e565b620002c5565b005b620001a560048036038101906200019f9190620010fb565b62000406565b005b620001c56004803603810190620001bf9190620010fb565b6200064e565b005b620001e56004803603810190620001df91906200112d565b62000941565b005b620001f162000c64565b60405162000200919062000f83565b60405180910390f35b620002276004803603810190620002219190620010fb565b62000c6a565b005b60008054906101000a900473ffffffffffffffffffffffffffffffffffffffff1681565b60055481565b600260009054906101000a900473ffffffffffffffffffffffffffffffffffffffff1681565b600160009054906101000a900473ffffffffffffffffffffffffffffffffffffffff1681565b600360009054906101000a900473ffffffffffffffffffffffffffffffffffffffff1681565b826000806101000a81548173ffffffffffffffffffffffffffffffffffffffff021916908373ffffffffffffffffffffffffffffffffffffffff16021790555081600160006101000a81548173ffffffffffffffffffffffffffffffffffffffff021916908373ffffffffffffffffffffffffffffffffffffffff16021790555080600260006101000a81548173ffffffffffffffffffffffffffffffffffffffff021916908373ffffffffffffffffffffffffffffffffffffffff1602179055506000604051620003979062000eb2565b620003a39190620011b7565b604051809103906000f080158015620003c0573d6000803e3d6000fd5b50600360006101000a81548173ffffffffffffffffffffffffffffffffffffffff021916908373ffffffffffffffffffffffffffffffffffffffff160217905550505050565b600160009054906101000a900473ffffffffffffffffffffffffffffffffffffffff1673ffffffffffffffffffffffffffffffffffffffff166323b872dd3330846040518463ffffffff1660e01b81526004016200046793929190620011e5565b6020604051808303816000875af115801562000487573d6000803e3d6000fd5b505050506040513d601f19601f82011682018060405250810190620004ad91906200125f565b506000600554600454620004c29190620012ca565b90506000600260009054906101000a900473ffffffffffffffffffffffffffffffffffffffff1673ffffffffffffffffffffffffffffffffffffffff1663e19a5bad60055485856040518463ffffffff1660e01b815260040162000529939291906200135f565b602060405180830381865afa15801562000547573d6000803e3d6000fd5b505050506040513d601f19601f820116820180604052508101906200056d9190620013cd565b905060008054906101000a900473ffffffffffffffffffffffffffffffffffffffff1673ffffffffffffffffffffffffffffffffffffffff1663a9059cbb33836040518363ffffffff1660e01b8152600401620005cc929190620013ff565b6020604051808303816000875af1158015620005ec573d6000803e3d6000fd5b505050506040513d601f19601f820116820180604052508101906200061291906200125f565b5082600560008282546200062791906200142c565b92505081905550806004600082825462000642919062001467565b92505081905550505050565b6000600360009054906101000a900473ffffffffffffffffffffffffffffffffffffffff1673ffffffffffffffffffffffffffffffffffffffff166318160ddd6040518163ffffffff1660e01b8152600401602060405180830381865afa158015620006be573d6000803e3d6000fd5b505050506040513d601f19601f82011682018060405250810190620006e49190620014b9565b905060008160045484620006f99190620014eb565b62000705919062001565565b9050600082600554856200071a9190620014eb565b62000726919062001565565b9050600360009054906101000a900473ffffffffffffffffffffffffffffffffffffffff1673ffffffffffffffffffffffffffffffffffffffff16639dc29fac33866040518363ffffffff1660e01b815260040162000787929190620013ff565b600060405180830381600087803b158015620007a257600080fd5b505af1158015620007b7573d6000803e3d6000fd5b5050505060008054906101000a900473ffffffffffffffffffffffffffffffffffffffff1673ffffffffffffffffffffffffffffffffffffffff1663a9059cbb33846040518363ffffffff1660e01b815260040162000818929190620013ff565b6020604051808303816000875af115801562000838573d6000803e3d6000fd5b505050506040513d601f19601f820116820180604052508101906200085e91906200125f565b50600160009054906101000a900473ffffffffffffffffffffffffffffffffffffffff1673ffffffffffffffffffffffffffffffffffffffff1663a9059cbb33836040518363ffffffff1660e01b8152600401620008be929190620013ff565b6020604051808303816000875af1158015620008de573d6000803e3d6000fd5b505050506040513d601f19601f820116820180604052508101906200090491906200125f565b50816004600082825462000919919062001467565b92505081905550806005600082825462000934919062001467565b9250508190555050505050565b60008054906101000a900473ffffffffffffffffffffffffffffffffffffffff1673ffffffffffffffffffffffffffffffffffffffff166323b872dd3330856040518463ffffffff1660e01b8152600401620009a093929190620011e5565b6020604051808303816000875af1158015620009c0573d6000803e3d6000fd5b505050506040513d601f19601f82011682018060405250810190620009e691906200125f565b50600160009054906101000a900473ffffffffffffffffffffffffffffffffffffffff1673ffffffffffffffffffffffffffffffffffffffff166323b872dd3330846040518463ffffffff1660e01b815260040162000a4893929190620011e5565b6020604051808303816000875af115801562000a68573d6000803e3d6000fd5b505050506040513d601f19601f8201168201806040525081019062000a8e91906200125f565b506000600360009054906101000a900473ffffffffffffffffffffffffffffffffffffffff1673ffffffffffffffffffffffffffffffffffffffff166318160ddd6040518163ffffffff1660e01b8152600401602060405180830381865afa15801562000aff573d6000803e3d6000fd5b505050506040513d601f19601f8201168201806040525081019062000b259190620014b9565b9050600080820362000b3a5783905062000b95565b6000600454838662000b4d9190620014eb565b62000b59919062001565565b90506000600554848662000b6e9190620014eb565b62000b7a919062001565565b90508082101562000b8e5781925062000b92565b8092505b50505b600360009054906101000a900473ffffffffffffffffffffffffffffffffffffffff1673ffffffffffffffffffffffffffffffffffffffff166340c10f1933836040518363ffffffff1660e01b815260040162000bf4929190620013ff565b600060405180830381600087803b15801562000c0f57600080fd5b505af115801562000c24573d6000803e3d6000fd5b50505050836004600082825462000c3c91906200142c565b92505081905550826005600082825462000c5791906200142c565b9250508190555050505050565b60045481565b60008054906101000a900473ffffffffffffffffffffffffffffffffffffffff1673ffffffffffffffffffffffffffffffffffffffff166323b872dd3330846040518463ffffffff1660e01b815260040162000cc993929190620011e5565b6020604051808303816000875af115801562000ce9573d6000803e3d6000fd5b505050506040513d601f19601f8201168201806040525081019062000d0f91906200125f565b50600060055460045462000d249190620012ca565b90506000600260009054906101000a900473ffffffffffffffffffffffffffffffffffffffff1673ffffffffffffffffffffffffffffffffffffffff1663e19a5bad60045485856040518463ffffffff1660e01b815260040162000d8b939291906200135f565b602060405180830381865afa15801562000da9573d6000803e3d6000fd5b505050506040513d601f19601f8201168201806040525081019062000dcf9190620013cd565b9050600160009054906101000a900473ffffffffffffffffffffffffffffffffffffffff1673ffffffffffffffffffffffffffffffffffffffff1663a9059cbb33836040518363ffffffff1660e01b815260040162000e30929190620013ff565b6020604051808303816000875af115801562000e50573d6000803e3d6000fd5b505050506040513d601f19601f8201168201806040525081019062000e7691906200125f565b50826004600082825462000e8b91906200142c565b92505081905550806005600082825462000ea6919062001467565b92505081905550505050565b6118be806200159e83390190565b600073ffffffffffffffffffffffffffffffffffffffff82169050919050565b6000819050919050565b600062000f0b62000f0562000eff8462000ec0565b62000ee0565b62000ec0565b9050919050565b600062000f1f8262000eea565b9050919050565b600062000f338262000f12565b9050919050565b62000f458162000f26565b82525050565b600060208201905062000f62600083018462000f3a565b92915050565b6000819050919050565b62000f7d8162000f68565b82525050565b600060208201905062000f9a600083018462000f72565b92915050565b600062000fad8262000f12565b9050919050565b62000fbf8162000fa0565b82525050565b600060208201905062000fdc600083018462000fb4565b92915050565b600062000fef8262000f12565b9050919050565b620010018162000fe2565b82525050565b60006020820190506200101e600083018462000ff6565b92915050565b600080fd5b6000620010368262000ec0565b9050919050565b620010488162001029565b81146200105457600080fd5b50565b60008135905062001068816200103d565b92915050565b6000806000606084860312156200108a576200108962001024565b5b60006200109a8682870162001057565b9350506020620010ad8682870162001057565b9250506040620010c08682870162001057565b9150509250925092565b620010d58162000f68565b8114620010e157600080fd5b50565b600081359050620010f581620010ca565b92915050565b60006020828403121562001114576200111362001024565b5b60006200112484828501620010e4565b91505092915050565b6000806040838503121562001147576200114662001024565b5b60006200115785828601620010e4565b92505060206200116a85828601620010e4565b9150509250929050565b6000819050919050565b60006200119f62001199620011938462001174565b62000ee0565b62000f68565b9050919050565b620011b1816200117e565b82525050565b6000602082019050620011ce6000830184620011a6565b92915050565b620011df8162001029565b82525050565b6000606082019050620011fc6000830186620011d4565b6200120b6020830185620011d4565b6200121a604083018462000f72565b949350505050565b60008115159050919050565b620012398162001222565b81146200124557600080fd5b50565b60008151905062001259816200122e565b92915050565b60006020828403121562001278576200127762001024565b5b6000620012888482850162001248565b91505092915050565b6000819050919050565b7f4e487b7100000000000000000000000000000000000000000000000000000000600052601160045260246000fd5b6000620012d78262001291565b9150620012e48362001291565b9250828202620012f48162001291565b91507f800000000000000000000000000000000000000000000000000000000000000084146000841216156200132f576200132e6200129b565b5b82820584148315176200134757620013466200129b565b5b5092915050565b620013598162001291565b82525050565b60006060820190506200137660008301866200134e565b6200138560208301856200134e565b6200139460408301846200134e565b949350505050565b620013a78162001291565b8114620013b357600080fd5b50565b600081519050620013c7816200139c565b92915050565b600060208284031215620013e657620013e562001024565b5b6000620013f684828501620013b6565b91505092915050565b6000604082019050620014166000830185620011d4565b62001425602083018462000f72565b9392505050565b6000620014398262000f68565b9150620014468362000f68565b92508282019050808211156200146157620014606200129b565b5b92915050565b6000620014748262000f68565b9150620014818362000f68565b92508282039050818111156200149c576200149b6200129b565b5b92915050565b600081519050620014b381620010ca565b92915050565b600060208284031215620014d257620014d162001024565b5b6000620014e284828501620014a2565b91505092915050565b6000620014f88262000f68565b9150620015058362000f68565b9250828202620015158162000f68565b915082820484148315176200152f576200152e6200129b565b5b5092915050565b7f4e487b7100000000000000000000000000000000000000000000000000000000600052601260045260246000fd5b6000620015728262000f68565b91506200157f8362000f68565b92508262001592576200159162001536565b5b82820490509291505056fe60806040523480156200001157600080fd5b50604051620018be380380620018be8339818101604052810190620000379190620003df565b6040518060400160405280600b81526020017f4c6971756964546f6b656e0000000000000000000000000000000000000000008152506040518060400160405280600481526020017f4c495144000000000000000000000000000000000000000000000000000000008152508160039081620000b4919062000681565b508060049081620000c6919062000681565b505050620000db3382620000e260201b60201c565b506200089f565b600073ffffffffffffffffffffffffffffffffffffffff168273ffffffffffffffffffffffffffffffffffffffff1603620001575760006040517fec442f050000000000000000000000000000000000000000000000000000000081526004016200014e9190620007ad565b60405180910390fd5b6200016b600083836200016f60201b60201c565b5050565b600073ffffffffffffffffffffffffffffffffffffffff168373ffffffffffffffffffffffffffffffffffffffff1603620001c5578060026000828254620001b89190620007f9565b925050819055506200029b565b60008060008573ffffffffffffffffffffffffffffffffffffffff1673ffffffffffffffffffffffffffffffffffffffff1681526020019081526020016000205490508181101562000254578381836040517fe450d38c0000000000000000000000000000000000000000000000000000000081526004016200024b9392919062000845565b60405180910390fd5b8181036000808673ffffffffffffffffffffffffffffffffffffffff1673ffffffffffffffffffffffffffffffffffffffff16815260200190815260200160002081905550505b600073ffffffffffffffffffffffffffffffffffffffff168273ffffffffffffffffffffffffffffffffffffffff1603620002e6578060026000828254039250508190555062000333565b806000808473ffffffffffffffffffffffffffffffffffffffff1673ffffffffffffffffffffffffffffffffffffffff168152602001908152602001600020600082825401925050819055505b8173ffffffffffffffffffffffffffffffffffffffff168373ffffffffffffffffffffffffffffffffffffffff167fddf252ad1be2c89b69c2b068fc378daa952ba7f163c4a11628f55a4df523b3ef8360405162000392919062000882565b60405180910390a3505050565b600080fd5b6000819050919050565b620003b981620003a4565b8114620003c557600080fd5b50565b600081519050620003d981620003ae565b92915050565b600060208284031215620003f857620003f76200039f565b5b60006200040884828501620003c8565b91505092915050565b600081519050919050565b7f4e487b7100000000000000000000000000000000000000000000000000000000600052604160045260246000fd5b7f4e487b7100000000000000000000000000000000000000000000000000000000600052602260045260246000fd5b600060028204905060018216806200049357607f821691505b602082108103620004a957620004a86200044b565b5b50919050565b60008190508160005260206000209050919050565b60006020601f8301049050919050565b600082821b905092915050565b600060088302620005137fffffffffffffffffffffffffffffffffffffffffffffffffffffffffffffffff82620004d4565b6200051f8683620004d4565b95508019841693508086168417925050509392505050565b6000819050919050565b6000620005626200055c6200055684620003a4565b62000537565b620003a4565b9050919050565b6000819050919050565b6200057e8362000541565b620005966200058d8262000569565b848454620004e1565b825550505050565b600090565b620005ad6200059e565b620005ba81848462000573565b505050565b5b81811015620005e257620005d6600082620005a3565b600181019050620005c0565b5050565b601f8211156200063157620005fb81620004af565b6200060684620004c4565b8101602085101562000616578190505b6200062e6200062585620004c4565b830182620005bf565b50505b505050565b600082821c905092915050565b6000620006566000198460080262000636565b1980831691505092915050565b600062000671838362000643565b9150826002028217905092915050565b6200068c8262000411565b67ffffffffffffffff811115620006a857620006a76200041c565b5b620006b482546200047a565b620006c1828285620005e6565b600060209050601f831160018114620006f95760008415620006e4578287015190505b620006f0858262000663565b86555062000760565b601f1984166200070986620004af565b60005b8281101562000733578489015182556001820191506020850194506020810190506200070c565b868310156200075357848901516200074f601f89168262000643565b8355505b6001600288020188555050505b505050505050565b600073ffffffffffffffffffffffffffffffffffffffff82169050919050565b6000620007958262000768565b9050919050565b620007a78162000788565b82525050565b6000602082019050620007c460008301846200079c565b92915050565b7f4e487b7100000000000000000000000000000000000000000000000000000000600052601160045260246000fd5b60006200080682620003a4565b91506200081383620003a4565b92508282019050808211156200082e576200082d620007ca565b5b92915050565b6200083f81620003a4565b82525050565b60006060820190506200085c60008301866200079c565b6200086b602083018562000834565b6200087a604083018462000834565b949350505050565b600060208201905062000899600083018462000834565b92915050565b61100f80620008af6000396000f3fe608060405234801561001057600080fd5b50600436106100b45760003560e01c806370a082311161007157806370a082311461018f57806395d89b41146101bf5780639dc29fac146101dd578063a5c51274146101f9578063a9059cbb14610215578063dd62ed3e14610245576100b4565b806306fdde03146100b9578063095ea7b3146100d757806318160ddd1461010757806323b872dd14610125578063313ce5671461015557806340c10f1914610173575b600080fd5b6100c1610275565b6040516100ce9190610c63565b60405180910390f35b6100f160048036038101906100ec9190610d1e565b610307565b6040516100fe9190610d79565b60405180910390f35b61010f61032a565b60405161011c9190610da3565b60405180910390f35b61013f600480360381019061013a9190610dbe565b610334565b60405161014c9190610d79565b60405180910390f35b61015d610363565b60405161016a9190610e2d565b60405180910390f35b61018d60048036038101906101889190610d1e565b61036c565b005b6101a960048036038101906101a49190610e48565b610385565b6040516101b69190610da3565b60405180910390f35b6101c76103cd565b6040516101d49190610c63565b60405180910390f35b6101f760048036038101906101f29190610d1e565b61045f565b005b610213600480360381019061020e9190610d1e565b610478565b005b61022f600480360381019061022a9190610d1e565b610486565b60405161023c9190610d79565b60405180910390f35b61025f600480360381019061025a9190610e75565b6104a9565b60405161026c9190610da3565b60405180910390f35b60606003805461028490610ee4565b80601f01602080910402602001604051908101604052809291908181526020018280546102b090610ee4565b80156102fd5780601f106102d2576101008083540402835291602001916102fd565b820191906000526020600020905b8154815290600101906020018083116102e057829003601f168201915b5050505050905090565b600080610312610530565b905061031f818585610538565b600191505092915050565b6000600254905090565b60008061033f610530565b905061034c85828561054a565b6103578585856105df565b60019150509392505050565b60006012905090565b61037630826106d3565b6103813083836105df565b5050565b60008060008373ffffffffffffffffffffffffffffffffffffffff1673ffffffffffffffffffffffffffffffffffffffff168152602001908152602001600020549050919050565b6060600480546103dc90610ee4565b80601f016020809104026020016040519081016040528092919081815260200182805461040890610ee4565b80156104555780601f1061042a57610100808354040283529160200191610455565b820191906000526020600020905b81548152906001019060200180831161043857829003601f168201915b5050505050905090565b6104693082610755565b6104748230836105df565b5050565b61048282826106d3565b5050565b600080610491610530565b905061049e8185856105df565b600191505092915050565b6000600160008473ffffffffffffffffffffffffffffffffffffffff1673ffffffffffffffffffffffffffffffffffffffff16815260200190815260200160002060008373ffffffffffffffffffffffffffffffffffffffff1673ffffffffffffffffffffffffffffffffffffffff16815260200190815260200160002054905092915050565b600033905090565b61054583838360016107d7565b505050565b600061055684846104a9565b90507fffffffffffffffffffffffffffffffffffffffffffffffffffffffffffffffff8110156105d957818110156105c9578281836040517ffb8f41b20000000000000000000000000000000000000000000000000000000081526004016105c093929190610f24565b60405180910390fd5b6105d8848484840360006107d7565b5b50505050565b600073ffffffffffffffffffffffffffffffffffffffff168373ffffffffffffffffffffffffffffffffffffffff16036106515760006040517f96c6fd1e0000000000000000000000000000000000000000000000000000000081526004016106489190610f5b565b60405180910390fd5b600073ffffffffffffffffffffffffffffffffffffffff168273ffffffffffffffffffffffffffffffffffffffff16036106c35760006040517fec442f050000000000000000000000000000000000000000000000000000000081526004016106ba9190610f5b565b60405180910390fd5b6106ce8383836109ae565b505050565b600073ffffffffffffffffffffffffffffffffffffffff168273ffffffffffffffffffffffffffffffffffffffff16036107455760006040517fec442f0500000000000000000000000000000000000000000000000000000000815260040161073c9190610f5b565b60405180910390fd5b610751600083836109ae565b5050565b600073ffffffffffffffffffffffffffffffffffffffff168273ffffffffffffffffffffffffffffffffffffffff16036107c75760006040517f96c6fd1e0000000000000000000000000000000000000000000000000000000081526004016107be9190610f5b565b60405180910390fd5b6107d3826000836109ae565b5050565b600073ffffffffffffffffffffffffffffffffffffffff168473ffffffffffffffffffffffffffffffffffffffff16036108495760006040517fe602df050000000000000000000000000000000000000000000000000000000081526004016108409190610f5b565b60405180910390fd5b600073ffffffffffffffffffffffffffffffffffffffff168373ffffffffffffffffffffffffffffffffffffffff16036108bb5760006040517f94280d620000000000000000000000000000000000000000000000000000000081526004016108b29190610f5b565b60405180910390fd5b81600160008673ffffffffffffffffffffffffffffffffffffffff1673ffffffffffffffffffffffffffffffffffffffff16815260200190815260200160002060008573ffffffffffffffffffffffffffffffffffffffff1673ffffffffffffffffffffffffffffffffffffffff1681526020019081526020016000208190555080156109a8578273ffffffffffffffffffffffffffffffffffffffff168473ffffffffffffffffffffffffffffffffffffffff167f8c5be1e5ebec7d5bd14f71427d1e84f3dd0314c0f7b2291e5b200ac8c7c3b9258460405161099f9190610da3565b60405180910390a35b50505050565b600073ffffffffffffffffffffffffffffffffffffffff168373ffffffffffffffffffffffffffffffffffffffff1603610a005780600260008282546109f49190610fa5565b92505081905550610ad3565b60008060008573ffffffffffffffffffffffffffffffffffffffff1673ffffffffffffffffffffffffffffffffffffffff16815260200190815260200160002054905081811015610a8c578381836040517fe450d38c000000000000000000000000000000000000000000000000000000008152600401610a8393929190610f24565b60405180910390fd5b8181036000808673ffffffffffffffffffffffffffffffffffffffff1673ffffffffffffffffffffffffffffffffffffffff16815260200190815260200160002081905550505b600073ffffffffffffffffffffffffffffffffffffffff168273ffffffffffffffffffffffffffffffffffffffff1603610b1c5780600260008282540392505081905550610b69565b806000808473ffffffffffffffffffffffffffffffffffffffff1673ffffffffffffffffffffffffffffffffffffffff168152602001908152602001600020600082825401925050819055505b8173ffffffffffffffffffffffffffffffffffffffff168373ffffffffffffffffffffffffffffffffffffffff167fddf252ad1be2c89b69c2b068fc378daa952ba7f163c4a11628f55a4df523b3ef83604051610bc69190610da3565b60405180910390a3505050565b600081519050919050565b600082825260208201905092915050565b60005b83811015610c0d578082015181840152602081019050610bf2565b60008484015250505050565b6000601f19601f8301169050919050565b6000610c3582610bd3565b610c3f8185610bde565b9350610c4f818560208601610bef565b610c5881610c19565b840191505092915050565b60006020820190508181036000830152610c7d8184610c2a565b905092915050565b600080fd5b600073ffffffffffffffffffffffffffffffffffffffff82169050919050565b6000610cb582610c8a565b9050919050565b610cc581610caa565b8114610cd057600080fd5b50565b600081359050610ce281610cbc565b92915050565b6000819050919050565b610cfb81610ce8565b8114610d0657600080fd5b50565b600081359050610d1881610cf2565b92915050565b60008060408385031215610d3557610d34610c85565b5b6000610d4385828601610cd3565b9250506020610d5485828601610d09565b9150509250929050565b60008115159050919050565b610d7381610d5e565b82525050565b6000602082019050610d8e6000830184610d6a565b92915050565b610d9d81610ce8565b82525050565b6000602082019050610db86000830184610d94565b92915050565b600080600060608486031215610dd757610dd6610c85565b5b6000610de586828701610cd3565b9350506020610df686828701610cd3565b9250506040610e0786828701610d09565b9150509250925092565b600060ff82169050919050565b610e2781610e11565b82525050565b6000602082019050610e426000830184610e1e565b92915050565b600060208284031215610e5e57610e5d610c85565b5b6000610e6c84828501610cd3565b91505092915050565b60008060408385031215610e8c57610e8b610c85565b5b6000610e9a85828601610cd3565b9250506020610eab85828601610cd3565b9150509250929050565b7f4e487b7100000000000000000000000000000000000000000000000000000000600052602260045260246000fd5b60006002820490506001821680610efc57607f821691505b602082108103610f0f57610f0e610eb5565b5b50919050565b610f1e81610caa565b82525050565b6000606082019050610f396000830186610f15565b610f466020830185610d94565b610f536040830184610d94565b949350505050565b6000602082019050610f706000830184610f15565b92915050565b7f4e487b7100000000000000000000000000000000000000000000000000000000600052601160045260246000fd5b6000610fb082610ce8565b9150610fbb83610ce8565b9250828201905080821115610fd357610fd2610f76565b5b9291505056fea264697066735822122085c43806dd9c1e7f676c60f306bfdaa338a425bd714ac8ce9f304ae341534c4664736f6c63430008140033a2646970667358221220bbc71b0d7b6ba83e4c4e782281d9d46e00a3d0a65c20dcca85a1c9d0f9451b2664736f6c63430008140033",
  "linkReferences": {},
  "deployedLinkReferences": {}
}