{
  "_format": "hh-sol-artifact-1",
  "contractName": "Exchange",
  "sourceName": "contracts/Exchange.sol",
  "abi": [
    {
      "inputs": [],
      "name": "addLiquidity",
      "outputs": [],
      "stateMutability": "nonpayable",
      "type": "function"
    },
    {
      "inputs": [],
      "name": "getValue",
      "outputs": [
        {
          "internalType": "uint256",
          "name": "",
          "type": "uint256"
        }
      ],
      "stateMutability": "view",
      "type": "function"
    },
    {
      "inputs": [
        {
          "internalType": "uint256",
          "name": "_value",
          "type": "uint256"
        }
      ],
      "name": "increment",
      "outputs": [],
      "stateMutability": "nonpayable",
      "type": "function"
    },
    {
      "inputs": [],
      "name": "removeLiquidity",
      "outputs": [],
      "stateMutability": "nonpayable",
      "type": "function"
    },
    {
      "inputs": [],
      "name": "value",
      "outputs": [
        {
          "internalType": "uint256",
          "name": "",
          "type": "uint256"
        }
      ],
      "stateMutability": "view",
      "type": "function"
    }
  ],
  "bytecode": "0x608060405234801561001057600080fd5b50610221806100206000396000f3fe608060405234801561001057600080fd5b50600436106100575760003560e01c8063209652551461005c5780633fa4f2451461007a57806367b9a286146100985780637cf5dab0146100a2578063e8078d94146100be575b600080fd5b6100646100c8565b604051610071919061010f565b60405180910390f35b6100826100d1565b60405161008f919061010f565b60405180910390f35b6100a06100d7565b005b6100bc60048036038101906100b7919061015b565b6100d9565b005b6100c66100f4565b005b60008054905090565b60005481565b565b806000808282546100ea91906101b7565b9250508190555050565b565b6000819050919050565b610109816100f6565b82525050565b60006020820190506101246000830184610100565b92915050565b600080fd5b610138816100f6565b811461014357600080fd5b50565b6000813590506101558161012f565b92915050565b6000602082840312156101715761017061012a565b5b600061017f84828501610146565b91505092915050565b7f4e487b7100000000000000000000000000000000000000000000000000000000600052601160045260246000fd5b60006101c2826100f6565b91506101cd836100f6565b92508282019050808211156101e5576101e4610188565b5b9291505056fea2646970667358221220e425cc7bcaa2e98ee61473ef9b7ccbdd7e450952eba0de850c25b1db8d6ab9c364736f6c63430008140033",
  "linkReferences": {},
  "deployedLinkReferences": {}
}