{
  "_format": "hh-sol-artifact-1",
  "contractName": "Exchange",
  "sourceName": "contracts/Exchange.sol",
  "abi": [
    {
      "inputs": [
        {
          "internalType": "address",
          "name": "_tokenA",
          "type": "address"
        },
        {
          "internalType": "address",
          "name": "_tokenB",
          "type": "address"
        },
        {
          "internalType": "address",
          "name": "_amm",
          "type": "address"
        }
      ],
      "stateMutability": "nonpayable",
      "type": "constructor"
    },
    {
      "inputs": [
        {
          "internalType": "uint256",
          "name": "amountA",
          "type": "uint256"
        },
        {
          "internalType": "uint256",
          "name": "amountB",
          "type": "uint256"
        }
      ],
      "name": "addLiquidity",
      "outputs": [],
      "stateMutability": "nonpayable",
      "type": "function"
    },
    {
      "inputs": [],
      "name": "amm",
      "outputs": [
        {
          "internalType": "contract AutomatedMarketMaker",
          "name": "",
          "type": "address"
        }
      ],
      "stateMutability": "view",
      "type": "function"
    },
    {
      "inputs": [],
      "name": "lpToken",
      "outputs": [
        {
          "internalType": "contract LiquidToken",
          "name": "",
          "type": "address"
        }
      ],
      "stateMutability": "view",
      "type": "function"
    },
    {
      "inputs": [
        {
          "internalType": "uint256",
          "name": "lpAmount",
          "type": "uint256"
        }
      ],
      "name": "removeLiquidity",
      "outputs": [],
      "stateMutability": "nonpayable",
      "type": "function"
    },
    {
      "inputs": [],
      "name": "reserveA",
      "outputs": [
        {
          "internalType": "uint256",
          "name": "",
          "type": "uint256"
        }
      ],
      "stateMutability": "view",
      "type": "function"
    },
    {
      "inputs": [],
      "name": "reserveB",
      "outputs": [
        {
          "internalType": "uint256",
          "name": "",
          "type": "uint256"
        }
      ],
      "stateMutability": "view",
      "type": "function"
    },
    {
      "inputs": [
        {
          "internalType": "uint256",
          "name": "amountIn",
          "type": "uint256"
        }
      ],
      "name": "swapAforB",
      "outputs": [],
      "stateMutability": "nonpayable",
      "type": "function"
    },
    {
      "inputs": [
        {
          "internalType": "uint256",
          "name": "amountIn",
          "type": "uint256"
        }
      ],
      "name": "swapBforA",
      "outputs": [],
      "stateMutability": "nonpayable",
      "type": "function"
    },
    {
      "inputs": [],
      "name": "tokenA",
      "outputs": [
        {
          "internalType": "contract IERC20",
          "name": "",
          "type": "address"
        }
      ],
      "stateMutability": "view",
      "type": "function"
    },
    {
      "inputs": [],
      "name": "tokenB",
      "outputs": [
        {
          "internalType": "contract IERC20",
          "name": "",
          "type": "address"
        }
      ],
      "stateMutability": "view",
      "type": "function"
    }
  ],
  "bytecode": "0x60806040523480156200001157600080fd5b5060405162002d8a38038062002d8a8339818101604052810190620000379190620001f4565b826000806101000a81548173ffffffffffffffffffffffffffffffffffffffff021916908373ffffffffffffffffffffffffffffffffffffffff16021790555081600160006101000a81548173ffffffffffffffffffffffffffffffffffffffff021916908373ffffffffffffffffffffffffffffffffffffffff16021790555080600260006101000a81548173ffffffffffffffffffffffffffffffffffffffff021916908373ffffffffffffffffffffffffffffffffffffffff160217905550600060405162000109906200017c565b620001159190620002a7565b604051809103906000f08015801562000132573d6000803e3d6000fd5b50600360006101000a81548173ffffffffffffffffffffffffffffffffffffffff021916908373ffffffffffffffffffffffffffffffffffffffff160217905550505050620002c4565b611873806200151783390190565b600080fd5b600073ffffffffffffffffffffffffffffffffffffffff82169050919050565b6000620001bc826200018f565b9050919050565b620001ce81620001af565b8114620001da57600080fd5b50565b600081519050620001ee81620001c3565b92915050565b60008060006060848603121562000210576200020f6200018a565b5b60006200022086828701620001dd565b93505060206200023386828701620001dd565b92505060406200024686828701620001dd565b9150509250925092565b6000819050919050565b6000819050919050565b6000819050919050565b60006200028f62000289620002838462000250565b62000264565b6200025a565b9050919050565b620002a1816200026e565b82525050565b6000602082019050620002be600083018462000296565b92915050565b61124380620002d46000396000f3fe608060405234801561001057600080fd5b506004361061009e5760003560e01c80638014a7aa116100665780638014a7aa146101395780639c8f9f23146101555780639cd441da14610171578063dc5fa6c51461018d578063e4f1f70a146101ab5761009e565b80630fc63d10146100a357806319e36f3b146100c15780632a943945146100df5780635f64b55b146100fd5780635fcbd2851461011b575b600080fd5b6100ab6101c7565b6040516100b89190610d26565b60405180910390f35b6100c96101eb565b6040516100d69190610d5a565b60405180910390f35b6100e76101f1565b6040516100f49190610d96565b60405180910390f35b610105610217565b6040516101129190610d26565b60405180910390f35b61012361023d565b6040516101309190610dd2565b60405180910390f35b610153600480360381019061014e9190610e1e565b610263565b005b61016f600480360381019061016a9190610e1e565b610496565b005b61018b60048036038101906101869190610e4b565b61076c565b005b610195610a6e565b6040516101a29190610d5a565b60405180910390f35b6101c560048036038101906101c09190610e1e565b610a74565b005b60008054906101000a900473ffffffffffffffffffffffffffffffffffffffff1681565b60055481565b600260009054906101000a900473ffffffffffffffffffffffffffffffffffffffff1681565b600160009054906101000a900473ffffffffffffffffffffffffffffffffffffffff1681565b600360009054906101000a900473ffffffffffffffffffffffffffffffffffffffff1681565b600160009054906101000a900473ffffffffffffffffffffffffffffffffffffffff1673ffffffffffffffffffffffffffffffffffffffff166323b872dd3330846040518463ffffffff1660e01b81526004016102c293929190610eac565b6020604051808303816000875af11580156102e1573d6000803e3d6000fd5b505050506040513d601f19601f820116820180604052508101906103059190610f1b565b5060006005546004546103189190610f81565b90506000600260009054906101000a900473ffffffffffffffffffffffffffffffffffffffff1673ffffffffffffffffffffffffffffffffffffffff1663e19a5bad60055485856040518463ffffffff1660e01b815260040161037d93929190611008565b602060405180830381865afa15801561039a573d6000803e3d6000fd5b505050506040513d601f19601f820116820180604052508101906103be919061106b565b905060008054906101000a900473ffffffffffffffffffffffffffffffffffffffff1673ffffffffffffffffffffffffffffffffffffffff1663a9059cbb33836040518363ffffffff1660e01b815260040161041b929190611098565b6020604051808303816000875af115801561043a573d6000803e3d6000fd5b505050506040513d601f19601f8201168201806040525081019061045e9190610f1b565b50826005600082825461047191906110c1565b92505081905550806004600082825461048a91906110f5565b92505081905550505050565b6000600360009054906101000a900473ffffffffffffffffffffffffffffffffffffffff1673ffffffffffffffffffffffffffffffffffffffff166318160ddd6040518163ffffffff1660e01b8152600401602060405180830381865afa158015610505573d6000803e3d6000fd5b505050506040513d601f19601f82011682018060405250810190610529919061113e565b90506000816004548461053c919061116b565b61054691906111dc565b905060008260055485610559919061116b565b61056391906111dc565b9050600360009054906101000a900473ffffffffffffffffffffffffffffffffffffffff1673ffffffffffffffffffffffffffffffffffffffff16639dc29fac33866040518363ffffffff1660e01b81526004016105c2929190611098565b600060405180830381600087803b1580156105dc57600080fd5b505af11580156105f0573d6000803e3d6000fd5b5050505060008054906101000a900473ffffffffffffffffffffffffffffffffffffffff1673ffffffffffffffffffffffffffffffffffffffff1663a9059cbb33846040518363ffffffff1660e01b815260040161064f929190611098565b6020604051808303816000875af115801561066e573d6000803e3d6000fd5b505050506040513d601f19601f820116820180604052508101906106929190610f1b565b50600160009054906101000a900473ffffffffffffffffffffffffffffffffffffffff1673ffffffffffffffffffffffffffffffffffffffff1663a9059cbb33836040518363ffffffff1660e01b81526004016106f0929190611098565b6020604051808303816000875af115801561070f573d6000803e3d6000fd5b505050506040513d601f19601f820116820180604052508101906107339190610f1b565b50816004600082825461074691906110f5565b92505081905550806005600082825461075f91906110f5565b9250508190555050505050565b60008054906101000a900473ffffffffffffffffffffffffffffffffffffffff1673ffffffffffffffffffffffffffffffffffffffff166323b872dd3330856040518463ffffffff1660e01b81526004016107c993929190610eac565b6020604051808303816000875af11580156107e8573d6000803e3d6000fd5b505050506040513d601f19601f8201168201806040525081019061080c9190610f1b565b50600160009054906101000a900473ffffffffffffffffffffffffffffffffffffffff1673ffffffffffffffffffffffffffffffffffffffff166323b872dd3330846040518463ffffffff1660e01b815260040161086c93929190610eac565b6020604051808303816000875af115801561088b573d6000803e3d6000fd5b505050506040513d601f19601f820116820180604052508101906108af9190610f1b565b506000600360009054906101000a900473ffffffffffffffffffffffffffffffffffffffff1673ffffffffffffffffffffffffffffffffffffffff166318160ddd6040518163ffffffff1660e01b8152600401602060405180830381865afa15801561091f573d6000803e3d6000fd5b505050506040513d601f19601f82011682018060405250810190610943919061113e565b90506000808203610956578390506109a7565b60006004548386610967919061116b565b61097191906111dc565b905060006005548486610984919061116b565b61098e91906111dc565b9050808210156109a0578192506109a4565b8092505b50505b600360009054906101000a900473ffffffffffffffffffffffffffffffffffffffff1673ffffffffffffffffffffffffffffffffffffffff166340c10f1933836040518363ffffffff1660e01b8152600401610a04929190611098565b600060405180830381600087803b158015610a1e57600080fd5b505af1158015610a32573d6000803e3d6000fd5b505050508360046000828254610a4891906110c1565b925050819055508260056000828254610a6191906110c1565b9250508190555050505050565b60045481565b60008054906101000a900473ffffffffffffffffffffffffffffffffffffffff1673ffffffffffffffffffffffffffffffffffffffff166323b872dd3330846040518463ffffffff1660e01b8152600401610ad193929190610eac565b6020604051808303816000875af1158015610af0573d6000803e3d6000fd5b505050506040513d601f19601f82011682018060405250810190610b149190610f1b565b506000600554600454610b279190610f81565b90506000600260009054906101000a900473ffffffffffffffffffffffffffffffffffffffff1673ffffffffffffffffffffffffffffffffffffffff1663e19a5bad60045485856040518463ffffffff1660e01b8152600401610b8c93929190611008565b602060405180830381865afa158015610ba9573d6000803e3d6000fd5b505050506040513d601f19601f82011682018060405250810190610bcd919061106b565b9050600160009054906101000a900473ffffffffffffffffffffffffffffffffffffffff1673ffffffffffffffffffffffffffffffffffffffff1663a9059cbb33836040518363ffffffff1660e01b8152600401610c2c929190611098565b6020604051808303816000875af1158015610c4b573d6000803e3d6000fd5b505050506040513d601f19601f82011682018060405250810190610c6f9190610f1b565b508260046000828254610c8291906110c1565b925050819055508060056000828254610c9b91906110f5565b92505081905550505050565b600073ffffffffffffffffffffffffffffffffffffffff82169050919050565b6000819050919050565b6000610cec610ce7610ce284610ca7565b610cc7565b610ca7565b9050919050565b6000610cfe82610cd1565b9050919050565b6000610d1082610cf3565b9050919050565b610d2081610d05565b82525050565b6000602082019050610d3b6000830184610d17565b92915050565b6000819050919050565b610d5481610d41565b82525050565b6000602082019050610d6f6000830184610d4b565b92915050565b6000610d8082610cf3565b9050919050565b610d9081610d75565b82525050565b6000602082019050610dab6000830184610d87565b92915050565b6000610dbc82610cf3565b9050919050565b610dcc81610db1565b82525050565b6000602082019050610de76000830184610dc3565b92915050565b600080fd5b610dfb81610d41565b8114610e0657600080fd5b50565b600081359050610e1881610df2565b92915050565b600060208284031215610e3457610e33610ded565b5b6000610e4284828501610e09565b91505092915050565b60008060408385031215610e6257610e61610ded565b5b6000610e7085828601610e09565b9250506020610e8185828601610e09565b9150509250929050565b6000610e9682610ca7565b9050919050565b610ea681610e8b565b82525050565b6000606082019050610ec16000830186610e9d565b610ece6020830185610e9d565b610edb6040830184610d4b565b949350505050565b60008115159050919050565b610ef881610ee3565b8114610f0357600080fd5b50565b600081519050610f1581610eef565b92915050565b600060208284031215610f3157610f30610ded565b5b6000610f3f84828501610f06565b91505092915050565b6000819050919050565b7f4e487b7100000000000000000000000000000000000000000000000000000000600052601160045260246000fd5b6000610f8c82610f48565b9150610f9783610f48565b9250828202610fa581610f48565b91507f80000000000000000000000000000000000000000000000000000000000000008414600084121615610fdd57610fdc610f52565b5b8282058414831517610ff257610ff1610f52565b5b5092915050565b61100281610f48565b82525050565b600060608201905061101d6000830186610ff9565b61102a6020830185610ff9565b6110376040830184610ff9565b949350505050565b61104881610f48565b811461105357600080fd5b50565b6000815190506110658161103f565b92915050565b60006020828403121561108157611080610ded565b5b600061108f84828501611056565b91505092915050565b60006040820190506110ad6000830185610e9d565b6110ba6020830184610d4b565b9392505050565b60006110cc82610d41565b91506110d783610d41565b92508282019050808211156110ef576110ee610f52565b5b92915050565b600061110082610d41565b915061110b83610d41565b925082820390508181111561112357611122610f52565b5b92915050565b60008151905061113881610df2565b92915050565b60006020828403121561115457611153610ded565b5b600061116284828501611129565b91505092915050565b600061117682610d41565b915061118183610d41565b925082820261118f81610d41565b915082820484148315176111a6576111a5610f52565b5b5092915050565b7f4e487b7100000000000000000000000000000000000000000000000000000000600052601260045260246000fd5b60006111e782610d41565b91506111f283610d41565b925082611202576112016111ad565b5b82820490509291505056fea2646970667358221220bca185898b8a8421f0dedbb6fcebc28f346f086b84e4c419c4524ce67c266f1764736f6c6343000814003360806040523480156200001157600080fd5b5060405162001873380380620018738339818101604052810190620000379190620003df565b6040518060400160405280600b81526020017f4c6971756964546f6b656e0000000000000000000000000000000000000000008152506040518060400160405280600481526020017f4c495144000000000000000000000000000000000000000000000000000000008152508160039081620000b4919062000681565b508060049081620000c6919062000681565b505050620000db3382620000e260201b60201c565b506200089f565b600073ffffffffffffffffffffffffffffffffffffffff168273ffffffffffffffffffffffffffffffffffffffff1603620001575760006040517fec442f050000000000000000000000000000000000000000000000000000000081526004016200014e9190620007ad565b60405180910390fd5b6200016b600083836200016f60201b60201c565b5050565b600073ffffffffffffffffffffffffffffffffffffffff168373ffffffffffffffffffffffffffffffffffffffff1603620001c5578060026000828254620001b89190620007f9565b925050819055506200029b565b60008060008573ffffffffffffffffffffffffffffffffffffffff1673ffffffffffffffffffffffffffffffffffffffff1681526020019081526020016000205490508181101562000254578381836040517fe450d38c0000000000000000000000000000000000000000000000000000000081526004016200024b9392919062000845565b60405180910390fd5b8181036000808673ffffffffffffffffffffffffffffffffffffffff1673ffffffffffffffffffffffffffffffffffffffff16815260200190815260200160002081905550505b600073ffffffffffffffffffffffffffffffffffffffff168273ffffffffffffffffffffffffffffffffffffffff1603620002e6578060026000828254039250508190555062000333565b806000808473ffffffffffffffffffffffffffffffffffffffff1673ffffffffffffffffffffffffffffffffffffffff168152602001908152602001600020600082825401925050819055505b8173ffffffffffffffffffffffffffffffffffffffff168373ffffffffffffffffffffffffffffffffffffffff167fddf252ad1be2c89b69c2b068fc378daa952ba7f163c4a11628f55a4df523b3ef8360405162000392919062000882565b60405180910390a3505050565b600080fd5b6000819050919050565b620003b981620003a4565b8114620003c557600080fd5b50565b600081519050620003d981620003ae565b92915050565b600060208284031215620003f857620003f76200039f565b5b60006200040884828501620003c8565b91505092915050565b600081519050919050565b7f4e487b7100000000000000000000000000000000000000000000000000000000600052604160045260246000fd5b7f4e487b7100000000000000000000000000000000000000000000000000000000600052602260045260246000fd5b600060028204905060018216806200049357607f821691505b602082108103620004a957620004a86200044b565b5b50919050565b60008190508160005260206000209050919050565b60006020601f8301049050919050565b600082821b905092915050565b600060088302620005137fffffffffffffffffffffffffffffffffffffffffffffffffffffffffffffffff82620004d4565b6200051f8683620004d4565b95508019841693508086168417925050509392505050565b6000819050919050565b6000620005626200055c6200055684620003a4565b62000537565b620003a4565b9050919050565b6000819050919050565b6200057e8362000541565b620005966200058d8262000569565b848454620004e1565b825550505050565b600090565b620005ad6200059e565b620005ba81848462000573565b505050565b5b81811015620005e257620005d6600082620005a3565b600181019050620005c0565b5050565b601f8211156200063157620005fb81620004af565b6200060684620004c4565b8101602085101562000616578190505b6200062e6200062585620004c4565b830182620005bf565b50505b505050565b600082821c905092915050565b6000620006566000198460080262000636565b1980831691505092915050565b600062000671838362000643565b9150826002028217905092915050565b6200068c8262000411565b67ffffffffffffffff811115620006a857620006a76200041c565b5b620006b482546200047a565b620006c1828285620005e6565b600060209050601f831160018114620006f95760008415620006e4578287015190505b620006f0858262000663565b86555062000760565b601f1984166200070986620004af565b60005b8281101562000733578489015182556001820191506020850194506020810190506200070c565b868310156200075357848901516200074f601f89168262000643565b8355505b6001600288020188555050505b505050505050565b600073ffffffffffffffffffffffffffffffffffffffff82169050919050565b6000620007958262000768565b9050919050565b620007a78162000788565b82525050565b6000602082019050620007c460008301846200079c565b92915050565b7f4e487b7100000000000000000000000000000000000000000000000000000000600052601160045260246000fd5b60006200080682620003a4565b91506200081383620003a4565b92508282019050808211156200082e576200082d620007ca565b5b92915050565b6200083f81620003a4565b82525050565b60006060820190506200085c60008301866200079c565b6200086b602083018562000834565b6200087a604083018462000834565b949350505050565b600060208201905062000899600083018462000834565b92915050565b610fc480620008af6000396000f3fe608060405234801561001057600080fd5b50600436106100a95760003560e01c806340c10f191161007157806340c10f191461016857806370a082311461018457806395d89b41146101b45780639dc29fac146101d2578063a9059cbb146101ee578063dd62ed3e1461021e576100a9565b806306fdde03146100ae578063095ea7b3146100cc57806318160ddd146100fc57806323b872dd1461011a578063313ce5671461014a575b600080fd5b6100b661024e565b6040516100c39190610c18565b60405180910390f35b6100e660048036038101906100e19190610cd3565b6102e0565b6040516100f39190610d2e565b60405180910390f35b610104610303565b6040516101119190610d58565b60405180910390f35b610134600480360381019061012f9190610d73565b61030d565b6040516101419190610d2e565b60405180910390f35b61015261033c565b60405161015f9190610de2565b60405180910390f35b610182600480360381019061017d9190610cd3565b610345565b005b61019e60048036038101906101999190610dfd565b610353565b6040516101ab9190610d58565b60405180910390f35b6101bc61039b565b6040516101c99190610c18565b60405180910390f35b6101ec60048036038101906101e79190610cd3565b61042d565b005b61020860048036038101906102039190610cd3565b61043b565b6040516102159190610d2e565b60405180910390f35b61023860048036038101906102339190610e2a565b61045e565b6040516102459190610d58565b60405180910390f35b60606003805461025d90610e99565b80601f016020809104026020016040519081016040528092919081815260200182805461028990610e99565b80156102d65780601f106102ab576101008083540402835291602001916102d6565b820191906000526020600020905b8154815290600101906020018083116102b957829003601f168201915b5050505050905090565b6000806102eb6104e5565b90506102f88185856104ed565b600191505092915050565b6000600254905090565b6000806103186104e5565b90506103258582856104ff565b610330858585610594565b60019150509392505050565b60006012905090565b61034f8282610688565b5050565b60008060008373ffffffffffffffffffffffffffffffffffffffff1673ffffffffffffffffffffffffffffffffffffffff168152602001908152602001600020549050919050565b6060600480546103aa90610e99565b80601f01602080910402602001604051908101604052809291908181526020018280546103d690610e99565b80156104235780601f106103f857610100808354040283529160200191610423565b820191906000526020600020905b81548152906001019060200180831161040657829003601f168201915b5050505050905090565b610437828261070a565b5050565b6000806104466104e5565b9050610453818585610594565b600191505092915050565b6000600160008473ffffffffffffffffffffffffffffffffffffffff1673ffffffffffffffffffffffffffffffffffffffff16815260200190815260200160002060008373ffffffffffffffffffffffffffffffffffffffff1673ffffffffffffffffffffffffffffffffffffffff16815260200190815260200160002054905092915050565b600033905090565b6104fa838383600161078c565b505050565b600061050b848461045e565b90507fffffffffffffffffffffffffffffffffffffffffffffffffffffffffffffffff81101561058e578181101561057e578281836040517ffb8f41b200000000000000000000000000000000000000000000000000000000815260040161057593929190610ed9565b60405180910390fd5b61058d8484848403600061078c565b5b50505050565b600073ffffffffffffffffffffffffffffffffffffffff168373ffffffffffffffffffffffffffffffffffffffff16036106065760006040517f96c6fd1e0000000000000000000000000000000000000000000000000000000081526004016105fd9190610f10565b60405180910390fd5b600073ffffffffffffffffffffffffffffffffffffffff168273ffffffffffffffffffffffffffffffffffffffff16036106785760006040517fec442f0500000000000000000000000000000000000000000000000000000000815260040161066f9190610f10565b60405180910390fd5b610683838383610963565b505050565b600073ffffffffffffffffffffffffffffffffffffffff168273ffffffffffffffffffffffffffffffffffffffff16036106fa5760006040517fec442f050000000000000000000000000000000000000000000000000000000081526004016106f19190610f10565b60405180910390fd5b61070660008383610963565b5050565b600073ffffffffffffffffffffffffffffffffffffffff168273ffffffffffffffffffffffffffffffffffffffff160361077c5760006040517f96c6fd1e0000000000000000000000000000000000000000000000000000000081526004016107739190610f10565b60405180910390fd5b61078882600083610963565b5050565b600073ffffffffffffffffffffffffffffffffffffffff168473ffffffffffffffffffffffffffffffffffffffff16036107fe5760006040517fe602df050000000000000000000000000000000000000000000000000000000081526004016107f59190610f10565b60405180910390fd5b600073ffffffffffffffffffffffffffffffffffffffff168373ffffffffffffffffffffffffffffffffffffffff16036108705760006040517f94280d620000000000000000000000000000000000000000000000000000000081526004016108679190610f10565b60405180910390fd5b81600160008673ffffffffffffffffffffffffffffffffffffffff1673ffffffffffffffffffffffffffffffffffffffff16815260200190815260200160002060008573ffffffffffffffffffffffffffffffffffffffff1673ffffffffffffffffffffffffffffffffffffffff16815260200190815260200160002081905550801561095d578273ffffffffffffffffffffffffffffffffffffffff168473ffffffffffffffffffffffffffffffffffffffff167f8c5be1e5ebec7d5bd14f71427d1e84f3dd0314c0f7b2291e5b200ac8c7c3b925846040516109549190610d58565b60405180910390a35b50505050565b600073ffffffffffffffffffffffffffffffffffffffff168373ffffffffffffffffffffffffffffffffffffffff16036109b55780600260008282546109a99190610f5a565b92505081905550610a88565b60008060008573ffffffffffffffffffffffffffffffffffffffff1673ffffffffffffffffffffffffffffffffffffffff16815260200190815260200160002054905081811015610a41578381836040517fe450d38c000000000000000000000000000000000000000000000000000000008152600401610a3893929190610ed9565b60405180910390fd5b8181036000808673ffffffffffffffffffffffffffffffffffffffff1673ffffffffffffffffffffffffffffffffffffffff16815260200190815260200160002081905550505b600073ffffffffffffffffffffffffffffffffffffffff168273ffffffffffffffffffffffffffffffffffffffff1603610ad15780600260008282540392505081905550610b1e565b806000808473ffffffffffffffffffffffffffffffffffffffff1673ffffffffffffffffffffffffffffffffffffffff168152602001908152602001600020600082825401925050819055505b8173ffffffffffffffffffffffffffffffffffffffff168373ffffffffffffffffffffffffffffffffffffffff167fddf252ad1be2c89b69c2b068fc378daa952ba7f163c4a11628f55a4df523b3ef83604051610b7b9190610d58565b60405180910390a3505050565b600081519050919050565b600082825260208201905092915050565b60005b83811015610bc2578082015181840152602081019050610ba7565b60008484015250505050565b6000601f19601f8301169050919050565b6000610bea82610b88565b610bf48185610b93565b9350610c04818560208601610ba4565b610c0d81610bce565b840191505092915050565b60006020820190508181036000830152610c328184610bdf565b905092915050565b600080fd5b600073ffffffffffffffffffffffffffffffffffffffff82169050919050565b6000610c6a82610c3f565b9050919050565b610c7a81610c5f565b8114610c8557600080fd5b50565b600081359050610c9781610c71565b92915050565b6000819050919050565b610cb081610c9d565b8114610cbb57600080fd5b50565b600081359050610ccd81610ca7565b92915050565b60008060408385031215610cea57610ce9610c3a565b5b6000610cf885828601610c88565b9250506020610d0985828601610cbe565b9150509250929050565b60008115159050919050565b610d2881610d13565b82525050565b6000602082019050610d436000830184610d1f565b92915050565b610d5281610c9d565b82525050565b6000602082019050610d6d6000830184610d49565b92915050565b600080600060608486031215610d8c57610d8b610c3a565b5b6000610d9a86828701610c88565b9350506020610dab86828701610c88565b9250506040610dbc86828701610cbe565b9150509250925092565b600060ff82169050919050565b610ddc81610dc6565b82525050565b6000602082019050610df76000830184610dd3565b92915050565b600060208284031215610e1357610e12610c3a565b5b6000610e2184828501610c88565b91505092915050565b60008060408385031215610e4157610e40610c3a565b5b6000610e4f85828601610c88565b9250506020610e6085828601610c88565b9150509250929050565b7f4e487b7100000000000000000000000000000000000000000000000000000000600052602260045260246000fd5b60006002820490506001821680610eb157607f821691505b602082108103610ec457610ec3610e6a565b5b50919050565b610ed381610c5f565b82525050565b6000606082019050610eee6000830186610eca565b610efb6020830185610d49565b610f086040830184610d49565b949350505050565b6000602082019050610f256000830184610eca565b92915050565b7f4e487b7100000000000000000000000000000000000000000000000000000000600052601160045260246000fd5b6000610f6582610c9d565b9150610f7083610c9d565b9250828201905080821115610f8857610f87610f2b565b5b9291505056fea2646970667358221220a9a9d83b9b63e060059005a814bb3aeb05a93aff88b41aa12e7790bbbb6059fa64736f6c63430008140033",
  "linkReferences": {},
  "deployedLinkReferences": {}
}