{
  "_format": "hh-sol-artifact-1",
  "contractName": "LiquidToken",
  "sourceName": "contracts/LiquidToken.sol",
  "abi": [
    {
      "inputs": [
        {
          "internalType": "uint256",
          "name": "initialSupply",
          "type": "uint256"
        }
      ],
      "stateMutability": "nonpayable",
      "type": "constructor"
    },
    {
      "inputs": [
        {
          "internalType": "address",
          "name": "spender",
          "type": "address"
        },
        {
          "internalType": "uint256",
          "name": "allowance",
          "type": "uint256"
        },
        {
          "internalType": "uint256",
          "name": "needed",
          "type": "uint256"
        }
      ],
      "name": "ERC20InsufficientAllowance",
      "type": "error"
    },
    {
      "inputs": [
        {
          "internalType": "address",
          "name": "sender",
          "type": "address"
        },
        {
          "internalType": "uint256",
          "name": "balance",
          "type": "uint256"
        },
        {
          "internalType": "uint256",
          "name": "needed",
          "type": "uint256"
        }
      ],
      "name": "ERC20InsufficientBalance",
      "type": "error"
    },
    {
      "inputs": [
        {
          "internalType": "address",
          "name": "approver",
          "type": "address"
        }
      ],
      "name": "ERC20InvalidApprover",
      "type": "error"
    },
    {
      "inputs": [
        {
          "internalType": "address",
          "name": "receiver",
          "type": "address"
        }
      ],
      "name": "ERC20InvalidReceiver",
      "type": "error"
    },
    {
      "inputs": [
        {
          "internalType": "address",
          "name": "sender",
          "type": "address"
        }
      ],
      "name": "ERC20InvalidSender",
      "type": "error"
    },
    {
      "inputs": [
        {
          "internalType": "address",
          "name": "spender",
          "type": "address"
        }
      ],
      "name": "ERC20InvalidSpender",
      "type": "error"
    },
    {
      "anonymous": false,
      "inputs": [
        {
          "indexed": true,
          "internalType": "address",
          "name": "owner",
          "type": "address"
        },
        {
          "indexed": true,
          "internalType": "address",
          "name": "spender",
          "type": "address"
        },
        {
          "indexed": false,
          "internalType": "uint256",
          "name": "value",
          "type": "uint256"
        }
      ],
      "name": "Approval",
      "type": "event"
    },
    {
      "anonymous": false,
      "inputs": [
        {
          "indexed": true,
          "internalType": "address",
          "name": "from",
          "type": "address"
        },
        {
          "indexed": true,
          "internalType": "address",
          "name": "to",
          "type": "address"
        },
        {
          "indexed": false,
          "internalType": "uint256",
          "name": "value",
          "type": "uint256"
        }
      ],
      "name": "Transfer",
      "type": "event"
    },
    {
      "inputs": [
        {
          "internalType": "address",
          "name": "owner",
          "type": "address"
        },
        {
          "internalType": "address",
          "name": "spender",
          "type": "address"
        }
      ],
      "name": "allowance",
      "outputs": [
        {
          "internalType": "uint256",
          "name": "",
          "type": "uint256"
        }
      ],
      "stateMutability": "view",
      "type": "function"
    },
    {
      "inputs": [
        {
          "internalType": "address",
          "name": "spender",
          "type": "address"
        },
        {
          "internalType": "uint256",
          "name": "value",
          "type": "uint256"
        }
      ],
      "name": "approve",
      "outputs": [
        {
          "internalType": "bool",
          "name": "",
          "type": "bool"
        }
      ],
      "stateMutability": "nonpayable",
      "type": "function"
    },
    {
      "inputs": [
        {
          "internalType": "address",
          "name": "account",
          "type": "address"
        }
      ],
      "name": "balanceOf",
      "outputs": [
        {
          "internalType": "uint256",
          "name": "",
          "type": "uint256"
        }
      ],
      "stateMutability": "view",
      "type": "function"
    },
    {
      "inputs": [
        {
          "internalType": "address",
          "name": "account",
          "type": "address"
        },
        {
          "internalType": "uint256",
          "name": "amount",
          "type": "uint256"
        }
      ],
      "name": "burn",
      "outputs": [],
      "stateMutability": "nonpayable",
      "type": "function"
    },
    {
      "inputs": [],
      "name": "decimals",
      "outputs": [
        {
          "internalType": "uint8",
          "name": "",
          "type": "uint8"
        }
      ],
      "stateMutability": "view",
      "type": "function"
    },
    {
      "inputs": [
        {
          "internalType": "address",
          "name": "to",
          "type": "address"
        },
        {
          "internalType": "uint256",
          "name": "amount",
          "type": "uint256"
        }
      ],
      "name": "faucetMint",
      "outputs": [],
      "stateMutability": "nonpayable",
      "type": "function"
    },
    {
      "inputs": [
        {
          "internalType": "address",
          "name": "account",
          "type": "address"
        },
        {
          "internalType": "uint256",
          "name": "amount",
          "type": "uint256"
        }
      ],
      "name": "mint",
      "outputs": [],
      "stateMutability": "nonpayable",
      "type": "function"
    },
    {
      "inputs": [],
      "name": "name",
      "outputs": [
        {
          "internalType": "string",
          "name": "",
          "type": "string"
        }
      ],
      "stateMutability": "view",
      "type": "function"
    },
    {
      "inputs": [],
      "name": "symbol",
      "outputs": [
        {
          "internalType": "string",
          "name": "",
          "type": "string"
        }
      ],
      "stateMutability": "view",
      "type": "function"
    },
    {
      "inputs": [],
      "name": "totalSupply",
      "outputs": [
        {
          "internalType": "uint256",
          "name": "",
          "type": "uint256"
        }
      ],
      "stateMutability": "view",
      "type": "function"
    },
    {
      "inputs": [
        {
          "internalType": "address",
          "name": "to",
          "type": "address"
        },
        {
          "internalType": "uint256",
          "name": "value",
          "type": "uint256"
        }
      ],
      "name": "transfer",
      "outputs": [
        {
          "internalType": "bool",
          "name": "",
          "type": "bool"
        }
      ],
      "stateMutability": "nonpayable",
      "type": "function"
    },
    {
      "inputs": [
        {
          "internalType": "address",
          "name": "from",
          "type": "address"
        },
        {
          "internalType": "address",
          "name": "to",
          "type": "address"
        },
        {
          "internalType": "uint256",
          "name": "value",
          "type": "uint256"
        }
      ],
      "name": "transferFrom",
      "outputs": [
        {
          "internalType": "bool",
          "name": "",
          "type": "bool"
        }
      ],
      "stateMutability": "nonpayable",
      "type": "function"
    }
  ],
  "bytecode": "0x60806040523480156200001157600080fd5b50604051620018be380380620018be8339818101604052810190620000379190620003df565b6040518060400160405280600b81526020017f4c6971756964546f6b656e0000000000000000000000000000000000000000008152506040518060400160405280600481526020017f4c495144000000000000000000000000000000000000000000000000000000008152508160039081620000b4919062000681565b508060049081620000c6919062000681565b505050620000db3382620000e260201b60201c565b506200089f565b600073ffffffffffffffffffffffffffffffffffffffff168273ffffffffffffffffffffffffffffffffffffffff1603620001575760006040517fec442f050000000000000000000000000000000000000000000000000000000081526004016200014e9190620007ad565b60405180910390fd5b6200016b600083836200016f60201b60201c565b5050565b600073ffffffffffffffffffffffffffffffffffffffff168373ffffffffffffffffffffffffffffffffffffffff1603620001c5578060026000828254620001b89190620007f9565b925050819055506200029b565b60008060008573ffffffffffffffffffffffffffffffffffffffff1673ffffffffffffffffffffffffffffffffffffffff1681526020019081526020016000205490508181101562000254578381836040517fe450d38c0000000000000000000000000000000000000000000000000000000081526004016200024b9392919062000845565b60405180910390fd5b8181036000808673ffffffffffffffffffffffffffffffffffffffff1673ffffffffffffffffffffffffffffffffffffffff16815260200190815260200160002081905550505b600073ffffffffffffffffffffffffffffffffffffffff168273ffffffffffffffffffffffffffffffffffffffff1603620002e6578060026000828254039250508190555062000333565b806000808473ffffffffffffffffffffffffffffffffffffffff1673ffffffffffffffffffffffffffffffffffffffff168152602001908152602001600020600082825401925050819055505b8173ffffffffffffffffffffffffffffffffffffffff168373ffffffffffffffffffffffffffffffffffffffff167fddf252ad1be2c89b69c2b068fc378daa952ba7f163c4a11628f55a4df523b3ef8360405162000392919062000882565b60405180910390a3505050565b600080fd5b6000819050919050565b620003b981620003a4565b8114620003c557600080fd5b50565b600081519050620003d981620003ae565b92915050565b600060208284031215620003f857620003f76200039f565b5b60006200040884828501620003c8565b91505092915050565b600081519050919050565b7f4e487b7100000000000000000000000000000000000000000000000000000000600052604160045260246000fd5b7f4e487b7100000000000000000000000000000000000000000000000000000000600052602260045260246000fd5b600060028204905060018216806200049357607f821691505b602082108103620004a957620004a86200044b565b5b50919050565b60008190508160005260206000209050919050565b60006020601f8301049050919050565b600082821b905092915050565b600060088302620005137fffffffffffffffffffffffffffffffffffffffffffffffffffffffffffffffff82620004d4565b6200051f8683620004d4565b95508019841693508086168417925050509392505050565b6000819050919050565b6000620005626200055c6200055684620003a4565b62000537565b620003a4565b9050919050565b6000819050919050565b6200057e8362000541565b620005966200058d8262000569565b848454620004e1565b825550505050565b600090565b620005ad6200059e565b620005ba81848462000573565b505050565b5b81811015620005e257620005d6600082620005a3565b600181019050620005c0565b5050565b601f8211156200063157620005fb81620004af565b6200060684620004c4565b8101602085101562000616578190505b6200062e6200062585620004c4565b830182620005bf565b50505b505050565b600082821c905092915050565b6000620006566000198460080262000636565b1980831691505092915050565b600062000671838362000643565b9150826002028217905092915050565b6200068c8262000411565b67ffffffffffffffff811115620006a857620006a76200041c565b5b620006b482546200047a565b620006c1828285620005e6565b600060209050601f831160018114620006f95760008415620006e4578287015190505b620006f0858262000663565b86555062000760565b601f1984166200070986620004af565b60005b8281101562000733578489015182556001820191506020850194506020810190506200070c565b868310156200075357848901516200074f601f89168262000643565b8355505b6001600288020188555050505b505050505050565b600073ffffffffffffffffffffffffffffffffffffffff82169050919050565b6000620007958262000768565b9050919050565b620007a78162000788565b82525050565b6000602082019050620007c460008301846200079c565b92915050565b7f4e487b7100000000000000000000000000000000000000000000000000000000600052601160045260246000fd5b60006200080682620003a4565b91506200081383620003a4565b92508282019050808211156200082e576200082d620007ca565b5b92915050565b6200083f81620003a4565b82525050565b60006060820190506200085c60008301866200079c565b6200086b602083018562000834565b6200087a604083018462000834565b949350505050565b600060208201905062000899600083018462000834565b92915050565b61100f80620008af6000396000f3fe608060405234801561001057600080fd5b50600436106100b45760003560e01c806370a082311161007157806370a082311461018f57806395d89b41146101bf5780639dc29fac146101dd578063a5c51274146101f9578063a9059cbb14610215578063dd62ed3e14610245576100b4565b806306fdde03146100b9578063095ea7b3146100d757806318160ddd1461010757806323b872dd14610125578063313ce5671461015557806340c10f1914610173575b600080fd5b6100c1610275565b6040516100ce9190610c63565b60405180910390f35b6100f160048036038101906100ec9190610d1e565b610307565b6040516100fe9190610d79565b60405180910390f35b61010f61032a565b60405161011c9190610da3565b60405180910390f35b61013f600480360381019061013a9190610dbe565b610334565b60405161014c9190610d79565b60405180910390f35b61015d610363565b60405161016a9190610e2d565b60405180910390f35b61018d60048036038101906101889190610d1e565b61036c565b005b6101a960048036038101906101a49190610e48565b610385565b6040516101b69190610da3565b60405180910390f35b6101c76103cd565b6040516101d49190610c63565b60405180910390f35b6101f760048036038101906101f29190610d1e565b61045f565b005b610213600480360381019061020e9190610d1e565b610478565b005b61022f600480360381019061022a9190610d1e565b610486565b60405161023c9190610d79565b60405180910390f35b61025f600480360381019061025a9190610e75565b6104a9565b60405161026c9190610da3565b60405180910390f35b60606003805461028490610ee4565b80601f01602080910402602001604051908101604052809291908181526020018280546102b090610ee4565b80156102fd5780601f106102d2576101008083540402835291602001916102fd565b820191906000526020600020905b8154815290600101906020018083116102e057829003601f168201915b5050505050905090565b600080610312610530565b905061031f818585610538565b600191505092915050565b6000600254905090565b60008061033f610530565b905061034c85828561054a565b6103578585856105df565b60019150509392505050565b60006012905090565b61037630826106d3565b6103813083836105df565b5050565b60008060008373ffffffffffffffffffffffffffffffffffffffff1673ffffffffffffffffffffffffffffffffffffffff168152602001908152602001600020549050919050565b6060600480546103dc90610ee4565b80601f016020809104026020016040519081016040528092919081815260200182805461040890610ee4565b80156104555780601f1061042a57610100808354040283529160200191610455565b820191906000526020600020905b81548152906001019060200180831161043857829003601f168201915b5050505050905090565b6104693082610755565b6104748230836105df565b5050565b61048282826106d3565b5050565b600080610491610530565b905061049e8185856105df565b600191505092915050565b6000600160008473ffffffffffffffffffffffffffffffffffffffff1673ffffffffffffffffffffffffffffffffffffffff16815260200190815260200160002060008373ffffffffffffffffffffffffffffffffffffffff1673ffffffffffffffffffffffffffffffffffffffff16815260200190815260200160002054905092915050565b600033905090565b61054583838360016107d7565b505050565b600061055684846104a9565b90507fffffffffffffffffffffffffffffffffffffffffffffffffffffffffffffffff8110156105d957818110156105c9578281836040517ffb8f41b20000000000000000000000000000000000000000000000000000000081526004016105c093929190610f24565b60405180910390fd5b6105d8848484840360006107d7565b5b50505050565b600073ffffffffffffffffffffffffffffffffffffffff168373ffffffffffffffffffffffffffffffffffffffff16036106515760006040517f96c6fd1e0000000000000000000000000000000000000000000000000000000081526004016106489190610f5b565b60405180910390fd5b600073ffffffffffffffffffffffffffffffffffffffff168273ffffffffffffffffffffffffffffffffffffffff16036106c35760006040517fec442f050000000000000000000000000000000000000000000000000000000081526004016106ba9190610f5b565b60405180910390fd5b6106ce8383836109ae565b505050565b600073ffffffffffffffffffffffffffffffffffffffff168273ffffffffffffffffffffffffffffffffffffffff16036107455760006040517fec442f0500000000000000000000000000000000000000000000000000000000815260040161073c9190610f5b565b60405180910390fd5b610751600083836109ae565b5050565b600073ffffffffffffffffffffffffffffffffffffffff168273ffffffffffffffffffffffffffffffffffffffff16036107c75760006040517f96c6fd1e0000000000000000000000000000000000000000000000000000000081526004016107be9190610f5b565b60405180910390fd5b6107d3826000836109ae565b5050565b600073ffffffffffffffffffffffffffffffffffffffff168473ffffffffffffffffffffffffffffffffffffffff16036108495760006040517fe602df050000000000000000000000000000000000000000000000000000000081526004016108409190610f5b565b60405180910390fd5b600073ffffffffffffffffffffffffffffffffffffffff168373ffffffffffffffffffffffffffffffffffffffff16036108bb5760006040517f94280d620000000000000000000000000000000000000000000000000000000081526004016108b29190610f5b565b60405180910390fd5b81600160008673ffffffffffffffffffffffffffffffffffffffff1673ffffffffffffffffffffffffffffffffffffffff16815260200190815260200160002060008573ffffffffffffffffffffffffffffffffffffffff1673ffffffffffffffffffffffffffffffffffffffff1681526020019081526020016000208190555080156109a8578273ffffffffffffffffffffffffffffffffffffffff168473ffffffffffffffffffffffffffffffffffffffff167f8c5be1e5ebec7d5bd14f71427d1e84f3dd0314c0f7b2291e5b200ac8c7c3b9258460405161099f9190610da3565b60405180910390a35b50505050565b600073ffffffffffffffffffffffffffffffffffffffff168373ffffffffffffffffffffffffffffffffffffffff1603610a005780600260008282546109f49190610fa5565b92505081905550610ad3565b60008060008573ffffffffffffffffffffffffffffffffffffffff1673ffffffffffffffffffffffffffffffffffffffff16815260200190815260200160002054905081811015610a8c578381836040517fe450d38c000000000000000000000000000000000000000000000000000000008152600401610a8393929190610f24565b60405180910390fd5b8181036000808673ffffffffffffffffffffffffffffffffffffffff1673ffffffffffffffffffffffffffffffffffffffff16815260200190815260200160002081905550505b600073ffffffffffffffffffffffffffffffffffffffff168273ffffffffffffffffffffffffffffffffffffffff1603610b1c5780600260008282540392505081905550610b69565b806000808473ffffffffffffffffffffffffffffffffffffffff1673ffffffffffffffffffffffffffffffffffffffff168152602001908152602001600020600082825401925050819055505b8173ffffffffffffffffffffffffffffffffffffffff168373ffffffffffffffffffffffffffffffffffffffff167fddf252ad1be2c89b69c2b068fc378daa952ba7f163c4a11628f55a4df523b3ef83604051610bc69190610da3565b60405180910390a3505050565b600081519050919050565b600082825260208201905092915050565b60005b83811015610c0d578082015181840152602081019050610bf2565b60008484015250505050565b6000601f19601f8301169050919050565b6000610c3582610bd3565b610c3f8185610bde565b9350610c4f818560208601610bef565b610c5881610c19565b840191505092915050565b60006020820190508181036000830152610c7d8184610c2a565b905092915050565b600080fd5b600073ffffffffffffffffffffffffffffffffffffffff82169050919050565b6000610cb582610c8a565b9050919050565b610cc581610caa565b8114610cd057600080fd5b50565b600081359050610ce281610cbc565b92915050565b6000819050919050565b610cfb81610ce8565b8114610d0657600080fd5b50565b600081359050610d1881610cf2565b92915050565b60008060408385031215610d3557610d34610c85565b5b6000610d4385828601610cd3565b9250506020610d5485828601610d09565b9150509250929050565b60008115159050919050565b610d7381610d5e565b82525050565b6000602082019050610d8e6000830184610d6a565b92915050565b610d9d81610ce8565b82525050565b6000602082019050610db86000830184610d94565b92915050565b600080600060608486031215610dd757610dd6610c85565b5b6000610de586828701610cd3565b9350506020610df686828701610cd3565b9250506040610e0786828701610d09565b9150509250925092565b600060ff82169050919050565b610e2781610e11565b82525050565b6000602082019050610e426000830184610e1e565b92915050565b600060208284031215610e5e57610e5d610c85565b5b6000610e6c84828501610cd3565b91505092915050565b60008060408385031215610e8c57610e8b610c85565b5b6000610e9a85828601610cd3565b9250506020610eab85828601610cd3565b9150509250929050565b7f4e487b7100000000000000000000000000000000000000000000000000000000600052602260045260246000fd5b60006002820490506001821680610efc57607f821691505b602082108103610f0f57610f0e610eb5565b5b50919050565b610f1e81610caa565b82525050565b6000606082019050610f396000830186610f15565b610f466020830185610d94565b610f536040830184610d94565b949350505050565b6000602082019050610f706000830184610f15565b92915050565b7f4e487b7100000000000000000000000000000000000000000000000000000000600052601160045260246000fd5b6000610fb082610ce8565b9150610fbb83610ce8565b9250828201905080821115610fd357610fd2610f76565b5b9291505056fea264697066735822122085c43806dd9c1e7f676c60f306bfdaa338a425bd714ac8ce9f304ae341534c4664736f6c63430008140033",
  "linkReferences": {},
  "deployedLinkReferences": {}
}